:040000000200DE32EA
:01000B0032C2
:0100130032BA
:01001B0032B2
:0100230032AA
:01002B0032A2
:01003300329A
:03003B0002173772
:0300430002134E57
:01004B003282
:01005300327A
:01005B003272
:01006300326A
:03006B000213CCB1
:100070000000E2FBEAF2802C0000E0FBEAF08024C2
:10008000E6B50202EBF62200E2B50202EBF2220034
:10009000E0B50202EBF02230F6E0A88220F5D3EAC8
:1000A000C6F582228B822230F6E6A88220F5D9801E
:0100B000CF80
:030157000200B1F2
:0300B100020268E0
:10015A00AF82BFA502800ABFA6028009BFA70E8090
:10016A0008900001229000022290000422900000D0
:10017A0022AF82BFA8005003020240EF243D500381
:10018A00020240EF2458FF240A83F582EF241F83DA
:10019A00F583E473D4D8DCE0E4F0F8FCF400040856
:1001AA0014181C20242834E8EC2C300C10383C019C
:1001BA00010101010101010102020202020202021D
:1001CA00020201010202020202029000E2229000EF
:1001DA00E9229000EA229000B5229000B62290000F
:1001EA00B3229000B4229000B7229000CC22900053
:1001FA00CD229001832290018A22900192229001BD
:10020A00942290019F229001CB22900221229002F7
:10021A002322900224229002252290022622900272
:10022A00272290006F229000702290022A229002C8
:10023A009F229002A0229000002212134A12109DBF
:10024A0012138F122D881204FD120ED91214D243E2
:10025A00B54043B94043B54085B9B9D2AF2212215E
:10026A00C91202447457C0E0744CC0E07480C0E004
:10027A001244CD1581158115817464C0E0744CC097
:10028A00E07480C0E01244CD158115811581900378
:10029A00E81210DB1230011223BE12341F9003E859
:1002AA001210DB75B1001230121232E012085B1222
:0702BA0021EB12100780EC9C
:104C5700534D4B2076616C7068610D0A00444556D0
:104C6700494345207649643A30783035616320708E
:0C4C770049643A3078303234660A0D008F
:1002C100AF82BFA502800ABFA6028009BFA70E8028
:1002D1000890000122900002229000042290000068
:1002E10022AF82BFA80050030203A7EF243D5003B1
:1002F1000203A7EF2458FF240A83F582EF241F830A
:10030100F583E4733B3F43474B575F635B676B6F19
:100311007B7F83878B8F9B4F53939773779FA30328
:10032100030303030303030303030303030303039C
:10033100030303030303030303039000E22290007A
:10034100E9229000EA229000B5229000B6229000A6
:10035100B3229000B4229000B7229000CC229000EA
:10036100CD229001832290018A2290019222900154
:10037100942290019F229001CB229002212290028F
:10038100232290022422900225229002262290020A
:10039100272290006F229000702290022A22900260
:1003A1009F229002A022900000220232890232A6EE
:1003B100AE82AF8390045AE0FCA3E0FDEEB50405E4
:1003C100EFB505012290045AEEF0EFA3F090000082
:1003D1007401F0900001EEF0EFA3F0900000023202
:1003E100C3AE82AF8390045CE0FCA3E0FDEEB504F4
:1003F10005EFB505012290045CEEF0EFA3F090004B
:10040100007402F0900001EEF0EFA3F09000000202
:0204110032C3F4
:0451EE0000000000BD
:10041300AF82BFA502800ABFA6028009BFA70E80D4
:100423000890000122900002229000042290000014
:1004330022AF82BFA80050030204F9EF243D50030A
:100443000204F9EF2458FF240A83F582EF241F8363
:10045300F583E4738D9195999DA9B1B5ADB9BDC1EE
:10046300CDD1D5D9DDE1EDA1A5E5E9C5C9F1F50406
:100473000404040404040404040404040404040439
:10048300040404040404040404049000E22290001D
:10049300E9229000EA229000B5229000B622900053
:1004A300B3229000B4229000B7229000CC22900097
:1004B300CD229001832290018A2290019222900101
:1004C300942290019F229001CB229002212290023C
:1004D30023229002242290022522900226229002B7
:1004E300272290006F229000702290022A2290020D
:1004F3009F229002A0229000002275080075090037
:10050300750A007F00BF1000501BEF2403F582E43F
:100513003400F583E4F0EF2413F582E43400F5832B
:10052300E4F00F80E022E5822403F582E43400F551
:1005330083E0F5822285098222E582C42354E0FF09
:100543002463FDE4344FFEE50B250BFC2DF582E41B
:100553003EF583E493FDA3E493FEE50C60067A94F1
:100563007B4C80047A977B4C8B017B80C007C00651
:10057300C005C004C002C001C003C005C006748327
:10058300C0E0744CC0E0EBC0E01244CDE58124F838
:10059300F581D004D005D006D0078D028E03C3EABF
:1005A3009420EB9452403F743F9A74529B4037E53A
:1005B3000C60098D03741F5BF50A800C9000257590
:1005C300F000120E47750A00AA0A7B00C002C0039E
:1005D300749CC0E0744CC0E07480C0E01244CDE56C
:1005E3008124FBF58122E50A6033E50A75F0A0A4B6
:1005F3002463FA744F35F0FBEF2AFAE43BFBEC2A51
:10060300F582E43BF583E493FCA3E493FF8C028F30
:1006130003BA0105BB000280048C058F06850C40DC
:100623008D828E83C006C0051230E1E582D005D0ED
:1006330006700122850C1F8D828E83C006C00512B1
:1006430042F2E582D005D0067001228D048E07C3E5
:10065300EC94E0EF9400403E74E79CE49F4037E560
:100663000C60198D0374075BF5F005F074018002CB
:1006730025E0D5F0FBF582120E9680178D037407E3
:100683005BF5F005F07401800225E0D5F0FBF582FF
:10069300120E9B020A69C3EC9404EF940040267483
:1006A300A49CE49F401FE50C600D8D1290002575FE
:1006B300F000120DD7800B8D1390002575F00012FA
:1006C3000E0F020A69C3EC94A5EF9400403F74A790
:1006D3009CE49F4038E50C602E8D03BBA502800A85
:1006E300BBA602800BBBA714800C7A017B00801091
:1006F3007A027B00800A7A047B0080047A007B0004
:100703008A828B830203B19000000203B1C3EC948D
:10071300A8EF94005003020841C374C29CE49F50A5
:1007230003020841E50C700302083B8D07BFA800D4
:100733005003020830EF243D5003020830EF2458E1
:10074300FF240A83F582EF241F83F583E473878EE6
:10075300959CA3B8C4CABED0D6DCEEF4FA00060C4E
:100763001EAAB11218E2E8242A070707070707079A
:100773000707070707070707080808080707080800
:10078300070708087CE27F000208347CE97F000247
:1007930008347CEA7F000208347CB57F0002083409
:1007A3007CB67F000208347CB37F000208347CB43B
:1007B3007F000208347CB77F0080767CCC7F00808A
:1007C300707CCD7F00806A7C837F0180647C8A7F1C
:1007D30001805E7C927F0180587C947F0180527CF3
:1007E3009F7F01804C7CCB7F0180467C217F0280F0
:1007F300407C237F02803A7C247F0280347C257FE7
:1008030002802E7C267F0280287C277F0280227C28
:100813006F7F00801C7C707F0080167C2A7F0280A3
:10082300107C9F7F02800A7CA07F0280047C007F73
:10083300008C828F830203E29000000203E2C00572
:10084300C00674B0C0E0744CC0E07480C0E01244D1
:10085300CDE58124FBF58122120538E5827003F58D
:100863008222900023E4F0FFBF1000503990002350
:10087300E0FEE07031EF2413F582E43400F583E009
:10088300FD8F82C007C006C005120529AC82D005C2
:10089300D006D007EC6205EE4205900023ED24FF5D
:1008A300E433F00F80C2900023E0FFE07005F50908
:1008B3008F82227F00BF1000506C8F82C007120509
:1008C30029AE82D007EF2413F582E43400F583E0E8
:1008D300FDEE6205ED604C9000247401F07C00BCD9
:1008E30005005033900024E0FB5D6021EE5203EBE2
:1008F30024FFE433F50C8F0B8C82C007C006C005C0
:10090300C00412053CD004D005D006D0070C9000DB
:1009130024E025E0F080C8EF2413F582E43400F5E9
:1009230083EEF00F808F750900900023E0F582229B
:100933001235B3E5097023850882122CFF850882DE
:10094300122D69AF82C007122D7BD007E50824035F
:10095300F582E43400F583EFF4F085081E9000611E
:1009630075F0001235C574F125084007E50804F554
:0C097300088006750800750901023614A2
:104C83004B45593A203078253034782025730D0A66
:104C930000555000444F574E004348414E4745444A
:104CA300204C415945523A2025640D0A00554E5275
:104CB30045434F474E495A4544204B45593A2030C6
:084CC30078253034780D0A0059
:06013700750D00750E00BD
:10097F00AF82BFA502800ABFA6028009BFA70E8063
:10098F0008900001229000022290000422900000A3
:10099F0022AF82BFA8005003020A65EF243D500327
:1009AF00020A65EF2458FF240A83F582EF241F8380
:1009BF00F583E473F9FD010509151D211925292D6D
:1009CF00393D4145494D590D11515531355D61093C
:1009DF00090A0A0A0A0A0A0A0A0A0A0A0A0A0A0A69
:1009EF000A0A0A0A0A0A0A0A0A0A9000E222900070
:1009FF00E9229000EA229000B5229000B6229000E2
:100A0F00B3229000B4229000B7229000CC22900025
:100A1F00CD229001832290018A229001922290018F
:100A2F00942290019F229001CB22900221229002CA
:100A3F002322900224229002252290022622900245
:100A4F00272290006F229000702290022A2290029B
:100A5F009F229002A022900000221215C2AF82BFE7
:100A6F000109900063E06003020ACB020A7D900047
:100A7F0025E50DF0E50D450E900025F075712D75EE
:100A8F00720075730075740875750090002575F008
:100A9F0000124408E5828583F045F0601E757125CC
:100AAF0075720075730075740875750090002D755B
:100ABF00F00012435C9000250203AB2290003574C6
:100ACF0006F0900036E50DF0E50D450E900036F07E
:100ADF0075714B757200757300757416757500908E
:100AEF00003575F000124408E5828583F045F0600B
:100AFF001E757135757200757300757416757500F6
:100B0F0090004B75F00012435C9000350203AE224B
:100B1F00AD82AE83AFF074022DFDE43EFE7C06C0C5
:100B2F0007C006C005C0041215C2AB82D004D005A1
:100B3F00D006D007BB010E900063E060087D377EC2
:100B4F00007F007C147B008C021CEA60158D828E66
:100B5F00838FF0124C37FAA3AD82AE83EA60E80BB5
:100B6F0080E58B8222AD82AE83AFF0C007C006C096
:100B7F00051215C2AC82D005D006D007BC0140903B
:100B8F000063E0603A7C00BC14005012EC2437FA8A
:100B9F00E43400FB8A828B83E070030C80E9ECC4A1
:100BAF000354F8FBEC2437F582E43400F583E0F5C9
:100BBF0082C003120EADAC82D003EC4BF5822274CF
:100BCF00022DFDE43EFE8D828E838FF0124C37F5A1
:100BDF008222AD82AE83AFF0E50F7003F58222C0A3
:100BEF0007C006C0051215C2AC82D005D006D007CB
:100BFF00BC0148900063E06042E50FC423541FFC22
:100C0F00BC14005032EC2437F582E43400F583E550
:100C1F000F5407F5F005F07C017B008006EC2CFCEF
:100C2F00EB33FBD5F0F7E07A005204EA5203EC4BBA
:100C3F0024FFE433F582227582002274022DFDE435
:100C4F003EFE7C00BC0600501BEC2DF9E43EFA8FF3
:100C5F000389828A838BF0124C37B50F047582019A
:100C6F00220C80E075820022AD82AE83AFF07CFF54
:100C7F007B00C3EB64809486502974022DF8E43E08
:100C8F00F98F02EB28F8E439F9888289838AF01208
:100C9F004C37FAB57102800BBCFF05EA70028B046A
:100CAF000B80CFBB061EBCFF012274022DFDE43E5C
:100CBF00FEEC2DFCE43EFB8F028C828B838AF0E5E9
:100CCF00710243D022AD82AE83AFF074022DFDE4EA
:100CDF003EFE7C00BC06005021EC2DF9E43EFA8F5D
:100CEF000389828A838BF0124C37B5710A89828A05
:100CFF00838BF0E41243D00C80DA22AD82AE83AF47
:100D0F00F0E510C423541FFCBC1400503674022DA0
:100D1F00FDE43EFEEC2DFCE43EFB8F02E510540794
:100D2F00F5F005F07401800225E0D5F0FBFF8C8211
:100D3F008B838AF0124C3742078C828B838AF0EFB9
:100D4F000243D0AE107F00C006C00774CBC0E07462
:100D5F004CC0E07480C0E01244CDE58124FBF581E6
:100D6F0022AD82AE83AFF0E511C423541FFCBC1437
:100D7F0000503774022DFDE43EFEEC2DFCE43EFBEB
:100D8F008F02E5115407F5F005F07401800225E09C
:100D9F00D5F0FBF4FF8C828B838AF0124C3752070D
:100DAF008C828B838AF0EF0243D0AE117F00C00696
:100DBF00C00774E9C0E0744CC0E07480C0E0124416
:100DCF00CDE58124FBF58122AD82AE83AFF0C00764
:100DDF00C006C0051215C2AC82D005D006D007BC24
:100DEF000112900063E0600C85121090003575F0D1
:100DFF0000020D0A8512718D828E838FF0020C779F
:100E0F00AD82AE83AFF0C007C006C0051215C2ACED
:100E1F0082D005D006D007BC0112900063E0600CB1
:100E2F0085131190003575F000020D708513718DCB
:100E3F00828E838FF0020CD4AD82AE83AFF0C007E9
:100E4F00C006C0051215C2AC82D005D006D007BCB3
:100E5F000118900063E0601275710075721475735C
:100E6F000090003775F0000243B174022DFDE43E8F
:100E7F00FE7571007572067573008D828E838FF00B
:100E8F000243B1850D8222E582420D22E582F452A2
:100E9F000D2285820D22750D0022850E8222AF82D2
:100EAF007E00EFC4540FFD60048D077E04EF030333
:100EBF00543FFD60088D078E0574022DFEEFC3139E
:0A0ECF0060058E07EF04FE8E8222FC
:104CCB006164645F6B65795F6269743A2063616EDE
:104CDB002774206164643A20253032580A006465D9
:104CEB006C5F6B65795F6269743A2063616E2774E0
:0C4CFB002064656C3A20253032580A0015
:100ED900900061E4F0900062F090006304F022AFAA
:100EE90082BFA502800ABFA6028009BFA70E80089B
:100EF900900001229000022290000422900000221A
:100F0900AF82BFA8005003020FCEEF243D50030269
:100F19000FCEEF2458FF240A83F582EF241F83F5AF
:100F290083E47362666A6E727E868A828E9296A264
:100F3900A6AAAEB2B6C2767ABABE9A9EC6CA0F0F32
:100F49000F0F0F0F0F0F0F0F0F0F0F0F0F0F0F0FA8
:100F59000F0F0F0F0F0F0F0F0F9000E2229000E9F4
:100F6900229000EA229000B5229000B6229000B3A8
:100F7900229000B4229000B7229000CC229000CD9C
:100F8900229001832290018A229001922290019459
:100F99002290019F229001CB2290022122900223CC
:100FA90022900224229002252290022622900227D2
:100FB9002290006F229000702290022A2290029FB4
:100FC900229002A02290000022AF82D20010AF022C
:100FD900C2009000E4E004547FFE9000E5E0FDEEDD
:100FE900B5050280149000E4E02464F582E434003D
:100FF900F583EFF09000E4EEF0A20092AF22121513
:10100900C9E5827001229000E4E0FF9000E5E0FE6E
:10101900EFB5060122E59A30E201229011807407AA
:10102900F07F00BF200050399000E5E0FE9000E419
:10103900E0FDEEB5050280298F060EEE2480FEE460
:101049003411FD9000E5E02464F582E43400F58371
:10105900E08E828D83F09000E5E004547FF00F80EC
:10106900C2BF200050128F060EEE2480F582E434B0
:1010790011F583E4F00F80E9539D80439D21439A44
:1010890004227515069000E60211357516069000C2
:10109900E602122575B20875BC02E5BC20E20575A9
:1010A900B10080F643BC0143B20422AE82AF83BED5
:1010B9000005BF0003801A0F801375B100000000FE
:1010C90000000000000000000000000000DEEBDF6F
:1010D900E922AE82AF838E048F051EBEFF011FEC8D
:1010E9004D60089003E81210B480EB22E493F58276
:1010F90022AE82AF83C2AF8FF78EFB8572FC8571FA
:10110900F275F30575F40A75F50975F60600000020
:101119000075F700D2AF227571E675720090EC0088
:101129000210FA75716E8514720210FAAE82AF83DD
:1011390090EC00C007C0061210F5AD82D006D007AA
:10114900BD5A1590EC01C007C0061210F5AD82D04A
:1011590006D007BDA50280047582002290EC02C06A
:1011690007C0061210F5AD82D006D007EDB51502FD
:101179008004758200227D007C00C3EC9515502BFC
:101189008C037A0074032BFB74EC3AFA8B828A8302
:10119900C007C006C005C0041210F5AB82D004D048
:1011A90005D006D007EB2DFD0C80CFAC157B007464
:1011B900032CFC74EC3BFB8C828B83C007C006C0FC
:1011C900051210F5AC82D005D006D007ECB50502A2
:1011D9008004758200227D00C3ED9515503AED2EED
:1011E900FBE43FFC8D028A017A00740329F974EC4F
:1011F9003AFA89828A83C007C006C005C004C003C1
:101209001210F5AA82D003D004D005D006D0078BDE
:10121900828C83EAF00D80C075820122AE82AF8391
:1012290090EC00C007C0061210F5AD82D006D007B9
:10123900BD5A2990EC01C007C0061210F5AD82D045
:1012490006D007BDA51690EC02C007C0061210F51E
:10125900AD82D006D007EDB516028005751700805E
:1012690003751701E517F51860417D00C3ED951663
:1012790050398D047B0074032CFC74EC3BFB8C828D
:101289008B83C007C006C0051210F5AC82D005D00B
:1012990006D007ED2EF582E43FF583E0FBECB503BC
:1012A90002800575180080030D80C1E518600122D0
:1012B900C007C00612112075145A90EC0012112CA7
:1012C9007514A590EC0112112C85161490EC0212DC
:1012D900112CD006D0077D007C00C3EC9516504236
:1012E9008C037A0074032BFB74EC3AFAEC2EF8E4C5
:1012F9003FF988828983E0F5148B828A83C007C00D
:1013090006C005C004C001C00012112CD000D001D4
:10131900D004D005D006D00788828983E02DFD0C42
:1013290080B8AF167E0074032FFF74EC3EFE8F82E7
:101339008E838D1402112CC2AF75F0A5745A02FF69
:1013490000758F0122C021C0E0C0F0C082C083C0F7
:1013590007C006C005C004C003C002C001C000C068
:10136900D075D000120933D0D0D000D001D002D02E
:1013790003D004D005D006D007D083D082D0F0D0D6
:10138900E0D0210200B475D84075ADFF75AEE675A1
:10139900AF0075870075AB0075AC0053A9BFC201DA
:1013A90010D902800010D802800043A94022AF82E0
:1013B90053A9BFD2018FAA43A94030010575B100D5
:1013C90080F82253A9BF10D9028002C20143A94063
:1013D90032AE82C0061213B7D0068E82020FD2AF88
:1013E90082BFA502800ABFA6028009BFA70E800896
:1013F9009000012290000222900004229000002215
:10140900AF82BFA80050030214CEEF243D5003025F
:1014190014CEEF2458FF240A83F582EF241F83F5A5
:1014290083E47362666A6E727E868A828E9296A25F
:10143900A6AAAEB2B6C2767ABABE9A9EC6CA141423
:101449001414141414141414141414141414141453
:101459001414141414141414149000E2229000E9C2
:10146900229000EA229000B5229000B6229000B3A3
:10147900229000B4229000B7229000CC229000CD97
:10148900229001832290018A229001922290019454
:101499002290019F229001CB2290022122900223C7
:1014A90022900224229002252290022622900227CD
:1014B9002290006F229000702290022A2290029FAF
:1014C900229002A022900000229002ECE4F0900207
:1014D900EDF09002EEF09002EFF09002F0F0C2020F
:1014E9009002F2E4F09002F1F0F522F523F524F5EB
:1014F90025F526F59675945F7595117591C043A9E3
:101509000122AE82AF837D00BDFF00501AE59930FC
:10151900E215900028C007C006C0051210B4D00516
:10152900D006D0070D80E17D007531088E828F834A
:101539008DF0122149539CE0439C0843990422AE43
:1015490082AF837D00BDFF00501AE59A30E2159005
:101559000028C007C006C0051210B4D005D006D0B7
:10156900070D80E17D007532168E828F838DF01212
:101579002189539D80439D16439A0422AE82AF83ED
:101589007D00BDFF00501AE59A30E215900028C091
:1015990007C006C0051210B4D005D006D0070D80CB
:1015A900E17D007532038E828F838DF0122189537C
:1015B9009D80439D03439A04229002EFE0F5822225
:1015C9009002ECE0FFBF0203D38001C3E433F5824C
:1015D90022C2AF9002F375F00012212BD2AF900214
:1015E900F3E0FF9002F4E0FE8F05BD0002802CBD00
:1015F9000103021684BF02030216B9BF21030216B2
:10160900E6BF80028050BF8103021694BF820302A5
:1016190016D6BFA10302170E021730BE01028014AD
:10162900BE03028015BE05028016BE07028017BEE2
:10163900091D80159002F30218509002F302187CDC
:101649009002F30218150219FA9002F30219544391
:10165900970843970222BE0002800ABE0602800B49
:10166900BE0811800C9002F3021A019002F3021BCA
:1016790025021EDC43970843970222BE0B069002FF
:10168900F30219AC43970843970222BE0002800A6D
:10169900BE0602800BBE0A11800C9002F3021A3AB0
:1016A9009002F3021B25021EF44397084397022276
:1016B900BE01028005BE030E80069002F30218A83F
:1016C9009002F302190643970843970222BE0006C7
:1016D9009002F3021A7D43970843970222BE09023A
:1016E900800ABE0A02800BBE0B14800C9002F30222
:1016F9001F109002F3021F6B9002F3021F8D439794
:101709000843970222BE0102800ABE02028008BE77
:10171900030E8006021F09021F7B9002F3021FC2FB
:101729004397084397022243970843970222C0210F
:10173900C0E0C0F0C082C083C007C006C005C004B5
:10174900C003C002C001C000C0D075D000AF92AEC6
:1017590093EF6056EF30E3065392F70217F6539270
:10176900EF53929FEF30E70953927F1214D2021779
:10177900F6EF30E4085392EF1215DA8070EF30E299
:10178900055392FB8067EF30E1055392FD805EEFD0
:1017990030E05A5392FE43912000000000000053AC
:1017A90091DF1214D24397018043EE6040EE30E698
:1017B900085393BF439A018034EE30E5055393DF14
:1017C900802BEE30E40B5393EF121FF04397018007
:1017D9001CEE30E2055393FB8013EE30E105539381
:1017E900FD800AEE30E0065393FE122033D0D0D0AC
:1017F90000D001D002D003D004D005D006D007D044
:1018090083D082D0F0D0E0D0210200B4AE82AF8381
:101819009002F2E4F074022EFEE43FFF8E828F8381
:10182900E0FCA3E04C60089002EC7401F0800590A4
:1018390002ECE4F08E828F83E09002EDF0539BF08E
:1018490043970243970422AE82AF839002F2E4F0F9
:101859008E828F83E0540F70138E828F83A3A3E04F
:10186900FEA3E0FFBE0105BF0002C202539BF04385
:10187900970422AE82AF839002F2E4F08E828F83C6
:10188900E0540F70138E828F83A3A3E0FEA3E0FFC1
:10189900BE0105BF0002D202539BF043970422AE5A
:1018A90082AF839002F2E4F08E828F83E0FD5305CC
:1018B9000FBD02428E828F83A3A3E0FCA3E04C708C
:1018C900358E828F83A3A3A3A3E0FEA3E0FF4E700E
:1018D900085397F75397FD801DBE8108BF00055334
:1018E90099F78012BE8208BF0005539AF780074313
:1018F900970843970222539BF043970422AE82AF85
:10190900839002F2E4F08E828F83E0FD53050FBDD0
:10191900022B8E828F83A3A3A3A3E0FEA3E0FFBEC5
:101929008108BF0005439908801ABE8208BF0005D7
:10193900439A08800F439708439702800743970803
:1019490043970222539BF043970422AE82AF8390C0
:1019590002F2E4F0E596603E8E828F83A3A3E0FE57
:10196900A3E0FF4E600A8E048F05BC0121BD001E55
:101979009002EEEEF0EE60089002EC7402F0800640
:101989009002EC7401F0539BF0439704800E439747
:10199900084397028006439708439702539BF043F5
:1019A900970422AE82AF839002F2E4F08E828F8395
:1019B900A3A3E0FCA3E04C70318E828F83A3A3A381
:1019C900A3E0FEA3E0FF4E700A539BF04397044344
:1019D900970222BE010DBF000A539BF043970443AF
:1019E9009702224397084397022243970843970295
:1019F9002243970843970222AE82AF839002F27482
:101A090002F08E828F83E0540F701F30020890110C
:101A1900087402F08005901108E4F0901109E4F0CF
:101A2900539BF0439B024397042243970843970231
:101A390022AE82AF83E0FD53050FBD01308E828F48
:101A490083A3A3A3A3E0FEA3E0FF4E6006BE011695
:101A5900BF0013901108E4F0901109F0539BF04373
:101A69009B0243970422439708439702224397080E
:101A790043970222AE82AF83E0FD53050FBD0202F8
:101A89008003021B1E8E828F83A3A3A3A3E0FEA360
:101A9900E0FFBE801BBF0018AC97530402E4A2E725
:101AA90013CC13CC901108ECF0901109E4F0805B91
:101AB900BE8127BF0024AC99530408E423CCC42376
:101AC900541F6CCC541FCC6CCC30E40244E0901110
:101AD90008ECF0901109E4F08031BE8227BF0024A0
:101AE900AE9A530608E423CEC423541F6ECE541F66
:101AF900CE6ECE30E40244E0901108EEF090110968
:101B0900E4F0800743970843970222539BF0439BD5
:101B19000243970422439708439702228582278527
:101B29008328A3A3E0FCA3E0FBBB0140904E3FE464
:101B390093FAA3E493FD8A718D727573808A828DFD
:101B490083E493F5747575009000EC75F000124309
:101B59005C9002FB74ECF07400A3F0E4A3F0900035
:101B6900ECE09002FEF0E4A3F0021E99BB020280B1
:101B790003021C99904E43E493FDC3EC9D4003027C
:101B89001C99904E44E493FAA3E493FDEC75F0029A
:101B9900A42AF582ED35F0F583E493FAA3E493FDE5
:101BA90074092AF529E43DF52A8A718D72757380C5
:101BB9008A828D83E493F5747575009000EC75F055
:101BC90000C005C00212435CD002D0058A828D8311
:101BD900E49324ECF52BE43400F52CA829A92A85F3
:101BE9002B2D852C2E752F00880289078A828F83D9
:101BF900E493FDA3E493FE8D718E727573808D82DB
:101C09008E83E493F574757500852D82852E838501
:101C19002FF0C007C002C001C00012435CD000D041
:101C290001D002D0078A828F83E493FAA3E493FF59
:101C39008A828F83E493252BF52BE4352CF52C74BC
:101C49000228F8E439F988828983E493FEA3E493AE
:101C59004E708C9000EEE0FEA3E04E7013E52BC3AE
:101C690094ECFEE52C9400FF9000EEEEF0EFA3F06B
:101C79009002FB74ECF07400A3F0E4A3F09000EE82
:101C8900E0FEA3E0FF9002FEEEF0EFA3F0021E9942
:101C9900E4BB030104FF603AEC7037757135757266
:101CA9004E757380904E35E493F574757500900008
:101CB900EC75F00012435C9002FB74ECF07400A325
:101CC900F0E4A3F09000ECE09002FEF0E4A3F0024F
:101CD9001E99EF7003021D8D7F00EC24FFFDEF3488
:101CE900FFFE904E46E493F97A00C3ED99EE6480C5
:101CF9008AF063F08095F04003021D8D904E47E411
:101D090093FDA3E493FE1CBCFF011FEC2CFCEF33F5
:101D1900FFEC2DF582EF3EF583E493FEA3E493FFF8
:101D29009000EC7402F09000ED04F0740124EDFCD5
:101D3900E43400FD8E828F83E493FA602C0EBE009A
:101D4900010F8C828D83EAF074012CF9E43DFA8944
:101D5900828A83E4F00429FCE43AFD9000ECE0FA7D
:101D69000A0A9000ECEAF080CB9002FB74ECF07464
:101D790000A3F0E4A3F09000ECE09002FEF0E4A3ED
:101D8900F0021E99BB2276852782852883A3A3A307
:101D9900A3E0FE702F9002FE7444F0E4A3F0757185
:101DA9000775724D757380757444F5759000ECF57F
:101DB900F012435C9002FB74ECF07400A3F0E4A30E
:101DC900F0021E99BE012F9002FE748DF0E4A3F07B
:101DD90075714B75724D75738075748DF5759000BD
:101DE900ECF5F012435C9002FB74ECF07400A3F084
:101DF900E4A3F0021E9943970843970222BB2102EC
:101E09008003021E92852782852883A3A3A3A3E0CA
:101E1900FE70367571F375724D757380904DF3E4EC
:101E290093F5747575009000EC75F00012435C90A1
:101E390002FB74ECF07400A3F0E4A3F09000ECE072
:101E49009002FEF0E4A3F08047BE013675710C756F
:101E5900724E757380904E0CE493F574757500900D
:101E690000EC75F00012435C9002FB74ECF0740016
:101E7900A3F0E4A3F09000ECE09002FEF0E4A3F0FC
:101E8900800E4397084397022243970843970222FB
:101E9900852782852883A3A3A3A3A3A3E0FEA3E0A8
:101EA900FF9002FEE0FCA3E0FDC3EE9CEF9D400421
:101EB9008C068D079002FBE0FBA3E0FCA3E0FD8EFE
:101EC900718F728B828C838DF012205C12206C438F
:101ED9009704229002F27402F09002EEE090110849
:101EE900F0539BF0439B01439704229002F2740242
:101EF900F0901108E4F0539BF0439B0143970422AF
:101F090043970843970222AE82AF83A3A3E0FCA3C1
:101F1900E0FABA02028005BA0341802D8E828F83CE
:101F2900A3A3A3A3E0FAA3E04A703674062EF582B0
:101F3900E43FF583E0FEA3E0FFBE0125BF00229048
:101F490002F27404F0439701227D00BC0513BD0021
:101F5900109002F27405F0439701224397084397C2
:101F69000222A3A3E0A3E09002F1F0539BF0439770
:101F790004229002F1E0901108F0539BF0439B0179
:101F890043970422AE82AF83A3A3A3A3E0FCA3E0FB
:101F9900FD4C700D8E828F83A3A3E09002EFF08039
:101FA90011BC010EBD000B8E828F83A3A3E09002AA
:101FB900F0F0539BF043970422A3A3A3A3E0FEA34D
:101FC900E0FF4E700A9002EFE0901108F0800EBE1B
:101FD900010BBF00089002F0E0901108F0539BF04C
:101FE900439B01439704229002F2E0FFBF0414903F
:101FF90002F2E4F0901100E0900061F0539BF0438D
:10200900970422BF05189002F2E4F0901100E0FF56
:10201900BF0516901101E0FFBF750E021340900233
:10202900F2E4F0539BF0439704229002F2E0FFBFE1
:10203900010A12206C43970443970122BF02074308
:102049009701439708224397084397019002EDE0CF
:10205900F5962285822485832585F026857122853A
:10206900722322E5224523700D9002F27402F05387
:102079009BF0859B9B22AE22AF23C374089EE49FED
:1020890050379002F27401F0753008852482852555
:10209900838526F0122109AC22AD23EC24F8FCED4E
:1020A90034FFFD8C228D2374082524F524E435257D
:1020B900F525539BF0439B0822BE0824BF002190BD
:1020C90002F27401F07530088524828525838526FE
:1020D900F0122109E4F522F523539BF0439B0822D2
:1020E9009002F27402F08522308524828525838549
:1020F90026F0122109539BF0AF9BE5224FF59B2255
:10210900AD82AE83AFF0E53024F75001228D718E98
:10211900728F7385307475750090110875F000021F
:10212900435CAD82AE83AFF0757100757211757342
:10213900007574087575008D828E838FF002435C7B
:10214900AD82AE83AFF0E53124EF5001228D718E5F
:10215900728F7385317475750090112075F00002C6
:10216900435CAD82AE83AFF07571107572117573F2
:10217900007574107575008D828E838FF002435C33
:10218900AD82AE83AFF0E53224BF5001228D718E4E
:10219900728F7385327475750090118075F0000225
:1021A900435CAD82AE83AFF0757140757211757382
:1021B900007574407575008D828E838FF002435CC3
:104D070005010906A101050719E029E71500250195
:104D1700750195088102750895018101050719003C
:104D270029FF150026FF007508950681000508195B
:104D37000129051500250175019505910275039552
:104D4700019101C005010980A1018501198129830C
:104D57001500250175019503810295058101C0059F
:104D67000C0901A101850219002A3C021500263C05
:104D770002751095018100C00600FF0901A1018598
:104D87000519012902150026FF0075089505B102CE
:104D9700C00631FF0974A10185070975150026FFB3
:104DA70000750895208102C005010906A101850645
:104DB700050719E029E71500250175019508810206
:104DC70005071900299F15002501750195A0810286
:104DD700C01201100100000008AC054F02000001DD
:104DE7000203010904000001030101000921110167
:104DF7000001224400070581031000010904010096
:104E07000103000000092111010001228D0007059F
:104E1700820340000109020000020100A0FAEA4DE6
:104E2700F34DFC4D034E0C4E154E00001C4E040373
:104E37000904494E604E6D4ED84D000001334E03B4
:104E4700394E636F6E74616374406361726C6F7324
:104E5700736C6573732E696F00534D4B204B6579E7
:0B4E6700626F61726400303030310077
:09013D00900300E4F0900301F0CE
:1021C900AF810F8F0177AABFFFF8227FFFEF247A33
:1021D900500A8F018706BEAA031F80F1EF247BF501
:1021E9008222900301E02401F0E06001221221D44F
:1021F900AF82900300E0C39F5027900300EFF07E69
:1022090000747AC0E0E4C0E0C007C0067472C0E0A0
:10221900744EC0E07480C0E01244CDE58124F9F524
:02222900812210
:104E7200535441434B207065616B3A2025642F25C2
:044E8200640D0A00B1
:10222B0085821B85831C85F01DC2AFC28590000380
:10223B001210B4C2FC7B007C00C3EB9519EC6480DC
:10224B00851AF063F08095F0503FEB251BF8EC35C9
:10225B001CF9AA1D888289838AF0124C37F582C03B
:10226B0004C003C002C001C00012229DAF82D00087
:10227B00D001D002D003D004888289838AF0EF1278
:10228B0043D00BBB00B30C80B0D2FCD287D285D22B
:10229B00AF22AF827E007D00BD08005029EE2EFEDE
:1022AB00C2B70000000000000000EF30E704D28747
:1022BB008002C287308603430601D2B700000000BC
:0922CB00EF2FFF0D80D28E82225C
:0C0146007533AB75344E7535B575364E0B
:1022D400AF82BFA502800ABFA6028009BFA70E80F5
:1022E4000890000122900002229000042290000035
:1022F40022AF82BFA80050030223BAEF243D50034B
:102304000223BAEF2458FF240A83F582EF241F83A3
:10231400F583E4734E52565A5E6A72766E7A7E8202
:102324008E92969A9EA2AE6266A6AA868AB2B623B8
:102334002323232323232323232323232323232369
:10234400232323232323232323239000E222900007
:10235400E9229000EA229000B5229000B622900073
:10236400B3229000B4229000B7229000CC229000B7
:10237400CD229001832290018A2290019222900121
:10238400942290019F229001CB229002212290025C
:1023940023229002242290022522900226229002D7
:1023A400272290006F229000702290022A2290022D
:1023B4009F229002A02290000022122C7E90000600
:1023C4001210DB90032275F0001226F79000C81259
:1023D40010B485333D85343E753F80758200122BE1
:1023E4007B90000C1210DB122A539000201210DB99
:1023F40085353D85363E753F80758201122B7B9075
:10240400000C1210DB122A5390001E1210DB7538D8
:10241400007582001227919000141210DB753800A9
:1024240075820012279190000F1210DBE4F53BF542
:102434003C900000122A8A90001E1210DB0226AA89
:10244400AE82AF83E0900324F08E828F83A3A3E057
:10245400900325F08E828F83A3A3A3E0900326F03C
:102464008E828F83A3A3A3A3E0900327F08E828F91
:1024740083A3A3A3A3A3E0900328F074062EF582FC
:10248400E43FF583E0900329F07537017F00BF0630
:10249400005015EF2424FDE43403FE8D828E83E086
:1024A40060037537000F80E6E5376061900325E42B
:1024B400F0900324F5F01227D59003257401F090D1
:1024C400032475F0001227D5900325E4F09003242B
:1024D400F5F01227D59003257401F090032475F0CC
:1024E400001227D5900325E4F0900324F5F0122779
:1024F400D59003257401F090032475F0001227D5BC
:10250400900325E4F0900324F5F00227D5900324EA
:1025140075F0000227D5AE82AF8390032A7401F0D0
:10252400FDBD15005015ED2EFBE43FFC8B828C8322
:10253400E0600590032AE4F00D80E690032AE0FDB4
:10254400FB3395E0FCC007C006C005C003C004749B
:1025540086C0E0744EC0E07480C0E01244CDE581D2
:1025640024FBF581D005D006D007ED70030225D5F4
:10257400900325E4F0900324F5F01227D590032569
:102584007401F090032475F0001227D5900325E41C
:10259400F0900324F5F01227D59003257401F090F0
:1025A400032475F0001227D5900325E4F09003244A
:1025B400F5F01227D59003257401F090032475F0EB
:1025C400001227D5900325E4F0900324F5F00227A8
:1025D400D58E828F83A3E0FD74022EF539E43FF596
:1025E4003A8D820228A6AE82AF83E0FDBD0102804F
:1025F40005BD022A80128E828F83A3E0F53BA3E0FF
:10260400F53C900000022A8A8E828F83A3E0FEA309
:10261400E0FFE4F53BF53C8E828F83022A8A22ADEB
:1026240082AE83AFF090032B75F000C007C006C0E4
:10263400051226F7D005D006D0078D028E038F042D
:1026440090032CE0F95301078A828B838CF0E91202
:1026540043D00DBD00010E8D828E838FF0124C3756
:10266400FC90032CE05460C4035407FB8D828E83DA
:102674008FF01243D0ECB50301228D828E838FF04C
:10268400124C37FD7F00C005C0077495C0E0744E3E
:10269400C0E07480C0E01244CDE58124FBF58122C2
:1026A40075380002279190030274AAF09003037412
:1026B4001DF09003047402F07F03BF1F00500FEF5E
:1026C4002402F582E43403F583E4F00F80EC7571A1
:1026D4001F75720090030275F000122CBCAF82903B
:1026E4000321EFF0751920751A0090030275F000AC
:1026F40002222BAD82AE83AFF0C007C006C0051224
:102704002C029000641210B4122770D005D006D0A9
:1027140007900302E0FCBCBB0280047582002275B2
:10272400710275720090030475F000C007C006C002
:1027340005122CBCAC82D005D006D007900303E070
:10274400B50402800475820022900304E08D828E19
:10275400838FF01243D00DBD00010E900305E08D70
:10276400828E838FF01243D075820122900302740B
:10277400FFF0900303F0900304F0900305F0751943
:1027840004751A0090030275F00002222BAF8290A8
:10279400030274AAF09003037403F0900304740119
:1027A400F0900305E538F0900306EFF075710575B8
:1027B400720090030275F000122CBCAF82900307E4
:1027C400EFF0751906751A0090030275F0000222E5
:1027D4002BAD82AE83AFF090030274AAF090030392
:1027E400741DF09003047402F08D828E838FF012B6
:1027F4004C37900305F074012DFAE43EFB8F048AF4
:10280400828B838CF0124C37900306F074022DFAFD
:10281400E43EFB8F048A828B838CF0124C37900346
:1028240007F074032DFAE43EFB8F048A828B838CB9
:10283400F0124C37900308F074042DFAE43EFB8F39
:10284400048A828B838CF0124C37900309F0740550
:102854002DFDE43EFE8D828E838FF0124C37900363
:102864000AF090030BE4F07F0ABF1F00500FEF241F
:1028740002F582E43403F583E4F00F80EC75711FF4
:1028840075720090030275F000122CBCAF829003A5
:1028940021EFF0751920751A0090030275F00002FB
:1028A400222BE58290032DF090030274AAF090038A
:1028B40003741DF09003047402F090032DE0900360
:1028C40005F0900306E4F0900307F0900308F090FD
:1028D4000309F090030AF090030BF0AE39AF3A8E7F
:1028E400828F83E090030CF08E828F83A3E09003A9
:1028F4000DF08E828F83A3A3E090030EF08E828F5F
:1029040083A3A3A3E090030FF08E828F83A3A3A3DA
:10291400A3E0900310F08E828F83A3A3A3A3A3E06C
:10292400900311F074062EF582E43FF583E09003E2
:1029340012F074072EF582E43FF583E0900313F060
:1029440074082EF582E43FF583E0900314F07409D3
:102954002EF582E43FF583E0900315F0740A2EF51A
:1029640082E43FF583E0900316F0740B2EF582E4C5
:102974003FF583E0900317F0740C2EF582E43FF5E5
:1029840083E0900318F0740D2EF582E43FF583E0A4
:10299400900319F0740E2EF582E43FF583E0900362
:1029A4001AF0740F2EF582E43FF583E090031BF0D8
:1029B40074102EF582E43FF583E090031CF074114B
:1029C4002EF582E43FF583E090031DF074122EF59A
:1029D40082E43FF583E090031EF074132EF582E445
:1029E4003FF583E090031FF0900320E4F075711F1E
:1029F400F572900302F5F0122CBCAF82900321EF24
:102A0400F0751920751A0090030275F00002222B4C
:102A1400AF8290030274AAF09003037403F090034E
:102A240004F0900305EFF0900306E4F0757105F5EA
:102A340072900302F5F0122CBCAF82900307EFF002
:102A4400751906751A0090030275F00002222B9086
:102A5400030274AAF09003037401F0900304740455
:102A6400F075710375720090030275F000122CBCAE
:102A7400AF82900305EFF0751904751A00900302F4
:102A840075F00002222BAE82AF8390030274AAF089
:102A9400900303740BF09003047405F0900305E4B1
:102AA400F0900306F0900307F0900308F0900309F8
:102AB400F090030AF08E0590030BEDF08F0690035F
:102AC4000CEEF0AF3B90030DEFF0AF3C90030EEF34
:102AD400F075710D75720090030275F000122CBC34
:102AE400AF8290030FEFF075190E751A0090030270
:102AF40075F00002222BAF8290030274AAF09003B7
:102B0400037403F090030423F0900305EFF09003A3
:102B140006E4F0757105F572900302F5F0122CBC11
:102B2400AF82900307EFF0751906751A009003023F
:102B340075F00002222BAF8290030274AAF0900376
:102B4400037403F09003047407F0900305EFF0900E
:102B54000306E4F0757105F572900302F5F0122C8A
:102B6400BCAF82900307EFF0751906751A00900345
:102B74000275F00002222BAF8290030274AAF09037
:102B84000303741DF09003047408F0900305EFF040
:102B9400AD3DAE3EAF3F7B047C008D828E838FF0D3
:102BA400124C37FA6011900306EAF00DBD00010ED5
:102BB4000BBB00E60C80E38B068C07C3EE941FEF7F
:102BC400648094805013EE2402F582EF3403F5837D
:102BD400E4F00EBE00E50F80E275711F757200907F
:102BE400030275F000122CBCAF82900321EFF07544
:102BF4001920751A0090030275F00002222B90032D
:102C04000274AAF09003037403F0900304740AF0AE
:102C1400900305E4F0900306F0757105F5729003D6
:102C240002F5F0122CBCAF82900307EFF075190681
:102C3400751A0090030275F00002222B90030274AF
:102C4400AAF09003037403F0900304740BF0900350
:102C540005E4F0900306F0757105F572900302F532
:102C6400F0122CBCAF82900307EFF0751906751AA9
:102C74000090030275F00002222B90030274AAF064
:102C84009003037403F0900304740CF0900305E4C0
:102C9400F0900306F0757105F572900302F5F012D9
:102CA4002CBCAF82900307EFF0751906751A0090DB
:102CB400030275F00002222B85827385837485F0EC
:102CC400757C007A007B00C3EA9571EB64808572A1
:102CD400F063F08095F0501CEA2573F8EB3574F935
:102CE400AF75888289838FF0124C372CFC0ABA00A6
:0B2CF400D60B80D37455C39CF58222E0
:104E8600697320626C616E6B3A2025640D0A0072AC
:104E960066206C696E6B206368616E6765643A2094
:104EA60025640D0A00534D4B204254352E300053D5
:094EB6004D4B204254332E300014
:102CFF00AF8243902043983F43A03F438807EF2480
:102D0F00F0500122EF2F902D1973801E801F80200D
:102D1F008021802280238024802580268027802880
:102D2F008029802A802B802C802DC28822C2892264
:102D3F00C28A22C2A522C2A422C2A322C2A222C236
:102D4F00A122C2A022C29D22C29C22C29B22C29A51
:102D5F0022C29922C29822C29522E5F8C313FF53CB
:102D6F000707E58854184F44E0F582225390DF534C
:102D7F0098C053A0C05388F822122D92122DDE4313
:102D8F00A90222758C0575A500758C4575A6007571
:102D9F008C8575BB00758CC5758D00758C0075E1C4
:102DAF001C75E22E75E33F75E43F75E57875E68790
:102DBF0075E7FE75EE7875D90E43F81043B0804372
:102DCF0080A043D11043E58043E1A043E940229026
:102DDF00FF9C7404F090FF98E4F090FF9D7404F052
:102DEF0090FF99E4F090FF9E7404F090FF9AE4F046
:102DFF0075DE04F5DD75D504F5D2F5C3F5CE75D6C0
:102E0F0004F5D3F5C4F5C175D704F5D4F5C5F5C2EE
:102E1F0090FFBD7404F090FFA5E4F090FFEDF090EB
:102E2F00FFD5F090FFBC7404F090FFA4E4F090FF86
:102E3F00ECF090FFD4F090FFBB7404F090FFA3E48C
:102E4F00F090FFEBF090FFD3F090FFBA7404F09086
:102E5F00FFA2E4F090FFEAF090FFD2F090FFB97478
:102E6F0004F090FFA1E4F090FFE9F090FFD1F09013
:102E7F00FFB87404F090FFA0E4F090FFE8F090FF2B
:102E8F00D0F090FFC37404F090FFABE4F090FFF329
:102E9F00F090FFDBF090FFC27404F090FFAAE4F013
:102EAF0090FFF2F090FFDAF090FFC17404F090FF02
:102EBF00A9E4F090FFF1F090FFD9F090FFC07404F7
:102ECF00F090FFA8E4F090FFF0F090FFD8F090FFA3
:102EDF00BF7404F090FFA7E4F090FFEFF090FFD7DE
:102EEF00F090FFBE7404F090FFA6E4F090FFEEF0B8
:102EFF0090FFD6F090FFC97404F090FFB1E4F0900A
:082F0F00FFF9F090FFE1F02250
:05015200E4F542F54355
:102F1700AF82BFA502800ABFA6028009BFA70E80A5
:102F270008900001229000022290000422900000E5
:102F370022AF82BFA8005003022FFDEF243D5003AC
:102F4700022FFDEF2458FF240A83F582EF241F8305
:102F5700F583E4739195999DA1ADB5B9B1BDC1C58F
:102F6700D1D5D9DDE1E5F1A5A9E9EDC9CDF5F92F70
:102F77002F2F2F2F2F2F2F2F2F2F2F2F2F2F2F2F5A
:102F87002F2F2F2F2F2F2F2F2F2F9000E222900040
:102F9700E9229000EA229000B5229000B622900024
:102FA700B3229000B4229000B7229000CC22900068
:102FB700CD229001832290018A22900192229001D2
:102FC700942290019F229001CB229002212290020D
:102FD7002322900224229002252290022622900288
:102FE700272290006F229000702290022A229002DE
:102FF7009F229002A02290000022A28DE43390032A
:103007002EF0A28EE43390032FF02290032EE0FFE0
:10301700A28DE433FEEFB50602803EA28DE4339025
:10302700032EF090032EE0FF601ABF012C74BFC07F
:10303700E0744EC0E07480C0E01244CD1581158164
:103047001581801574CAC0E0744EC0E07480C0E07A
:103057001244CD15811581158190032FE0FFA28EB3
:10306700E433FEEFB5060122A28EE43390032FF07E
:1030770090032FE0FF6019BF012B74D4C0E0744E9A
:10308700C0E07480C0E01244CD15811581158122FE
:1030970074DFC0E0744EC0E07480C0E01244CD1508
:1030A700811581158122AE82AF83BE4005BF7E02A6
:1030B7008024BE4105BF7E028010BE4205BF7E024E
:1030C700800CBE4311BF7E0E800875820122758277
:1030D70002227582032275820022AE82AF8390039B
:1030E70032E06016E54060128E048F05BC4D05BDC9
:1030F7007E0280069003337401F0C3EE9440EF9490
:103107007E5003023285C3744D9E747E9F50030226
:1031170032858E048F05EC24C0FC2C2C903127734C
:103127000232710232710232710232710231ED02E2
:10313700320302321902322F02324502325B023168
:10314700C80231D20231DCE540602C9003327401B1
:10315700F090002575F000120B1FE582700B120E20
:1031670092E5827004F5418003754101900333E5D0
:1031770041F0750A03802990002575F000120E476B
:10318700750A00900332E4F0900333E07012758201
:1031970040120E96120A69758240120E9B120A6936
:1031A700AC0A7D00C004C00574EAC0E0744EC0E0FC
:1031B7007480C0E01244CDE58124FBF5817582005F
:1031C70022900330E540F075820022900331E540FC
:1031D700F075820022E5406009900331E060031238
:1031E700341975820022E540600E900330E06005D7
:1031F700123528800312349975820022E540600E4B
:10320700900330E0600512354080031234B17582B7
:103217000022E540600E900330E0600512355880CB
:10322700031234CD75820022E540600E900330E032
:10323700600512357380031234E875820022E54079
:10324700600E900330E0600512358E80031235035F
:1032570075820022E540600E900330E0600512356C
:10326700A180031235167582002290032EE0700AA2
:103277008E828F831230AD1226A47582002275824A
:103287000122AE82AF8390032EE0FD600ABD010EDE
:103297008E828F8302150B8E828F8302244422AE87
:1032A70082AF8390032EE0FD600ABD010E8E828FF0
:1032B700830215488E828F8302251A22AE82AF833E
:1032C70090032EE0FD600ABD010E8E828F830215EA
:1032D700858E828F830225EA2290032EE0701FAE2F
:1032E70042AF43C374209E744E9F5012C2AF9000EA
:1032F7006175F000122623E4F542F543D2AF05428B
:07330700E4B5420205432278
:104EBF005553425F4D4F44450D0A0052465F4D4FCB
:104ECF0044450D0A004D41435F4D4F44450D0A00C7
:104EDF0057494E5F4D4F44450D0A004348414E47D9
:0F4EEF004544204C415945523A2025640D0A0094
:10330E00AF82BFA502800ABFA6028009BFA70E80AA
:10331E0008900001229000022290000422900000EA
:10332E0022AF82BFA80050030233F4EF243D5003B6
:10333E000233F4EF2458FF240A83F582EF241F830F
:10334E00F583E473888C909498A4ACB0A8B4B8BC00
:10335E00C8CCD0D4D8DCE89CA0E0E4C0C4ECF033F8
:10336E00333333333333333333333333333333331F
:10337E00333333333333333333339000E22290001D
:10338E00E9229000EA229000B5229000B622900029
:10339E00B3229000B4229000B7229000CC2290006D
:1033AE00CD229001832290018A22900192229001D7
:1033BE00942290019F229001CB2290022122900212
:1033CE00232290022422900225229002262290028D
:1033DE00272290006F229000702290022A229002E3
:1033EE009F229002A022900000229000E6E4F0902E
:1033FE0000E714F09000E87404F09000E9E4F09017
:10340E0000EA14F09000EB7401F0221233F802106F
:10341E0094900454E4F0900455F0900456F0900407
:10342E0057F0900458F0900459F01233F812108BA4
:10343E009000E6E024FB50069000E67404F0900045
:10344E00E8E0FFBF010050069000E87401F0900024
:10345E00E8E024EF50069000E87410F09000E9E0E8
:10346E0024FB50069000E97404F09000EBE0FFBFDF
:10347E00010050069000EB7401F09000EBE024EF99
:10348E0050069000EB7410F00241739000E6E0FFDE
:10349E000F9000E6EFF0EF24FB50059000E6E4F00D
:1034AE000210949000E6E070089000E67404F0803C
:1034BE000B9000E6E0FF1F9000E6EFF002109490F4
:1034CE0000E7E0FF242050089000E774FFF080072B
:1034DE0074202F9000E7F00210949000E7E0FFBFF9
:1034EE00200050079000E7E4F08007EF24E0900002
:1034FE00E7F00210949000E8E0FFBF100050060FB6
:10350E009000E8EFF00210949000E8E0FF24FE50E7
:10351E00061F9000E8EFF00210949000E9E0FF0F14
:10352E009000E9EFF0EF24FB50059000E9E4F00283
:10353E0010949000E9E0FF70089000E97404F080A8
:10354E00061F9000E9EFF00210949000EAE0FF24CD
:10355E002050089000EA74FFF0800774202F90002E
:10356E00EAF00210949000EAE0FFBF2000500790AE
:10357E0000EAE4F08007EF24E09000EAF0021094F5
:10358E009000EBE0FFBF100050060F9000EBEFF045
:10359E000210949000EBE0FF24FE50061F9000EB0B
:1035AE00EFF00210945380E35390F153B087538899
:1035BE007F53C0010241BF12361F900454E0FFBF7B
:1035CE00050050129000E6E0FFBF0400500E123DC1
:1035DE0085123E198006123D85123E19900455E063
:1035EE002401F0E0FFBF03004018900455E4F09072
:1035FE000454E02401F0E0FFBF060040059004549F
:10360E00E4F07582002290FF80E053E0DFF002418B
:10361E0073900458E0FFBF0500400302394290004A
:10362E00E6E0FEBE0374EF75F030A42434FC7403A0
:10363E0035F0FD900459E02CFCE43DFD9000E7E0F0
:10364E008C828D83F0900458E075F030A42434FC05
:10365E00740335F0FD74102CFCE43DFD900459E02C
:10366E002CFCE43DFD9000E7E08C828D83F090040D
:10367E0058E075F030A42434FC740335F0FD74204A
:10368E002CFCE43DFD900459E02CFCE43DFD900043
:10369E00E7E08C828D83F0023D44BE0400400302BD
:1036AE003D44BE00028029BE01028005BE0221807B
:1036BE0011900459E0904F4E93FE900456E02EFE6A
:1036CE008031EF904F5E93FD900456E02DFE8023E7
:1036DE00EF75F010A424FEFC744E35F0FD900459E5
:1036EE00E02CFCE43DFD900456E0FB8C828D83E4DF
:1036FE00932BFEBE550040030237C2EF75F030A487
:10370E002434FC740335F0FD900459E02CFCE43DA8
:10371E00FD8E03EB75F003A4D394FFF4FB7A0090B7
:10372E0000E7E0F5718A728B828A83C006C005C0FD
:10373E00041243EBAB83D004D005D0068B028C82EF
:10374E008D83EAF0900458E075F030A42434FC74B4
:10375E000335F0FD74102CFCE43DFD900459E02C73
:10376E00F582E43DF583E4F0900458E075F030A462
:10377E002434FC740335F0FD74202CFCE43DFD90E4
:10378E000459E02CFCE43DFDEE75F003A4FB7A0039
:10379E009000E7E0F5718A728B828A83C005C004BF
:1037AE001243EBAB83D004D0058B028C828D83EA5F
:1037BE00F0023D44BEAA0040030238878E05ED2478
:1037CE00ABFDEF75F030A42434FB740335F0FC90A0
:1037DE000459E02BF582E43CF583E4F0900458E0C4
:1037EE0075F030A42434FB740335F0FC74102BFBFD
:1037FE00E43CFC900459E02BFBE43CFCED75F0033B
:10380E00A4F97A009000E7E0F5718A7289828A83C2
:10381E00C005C004C0031243EBAA83D003D004D06A
:10382E00058A018B828C83E9F0900458E075F030A4
:10383E00A42434FB740335F0FC74202BFBE43CFC15
:10384E00900459E02BFBE43CFCED75F003A4D394FB
:10385E00FFF4FD7A009000E7E0F5718A728D828A9E
:10386E0083C004C0031243EBAD83D003D0048D029A
:10387E008B828C83EAF0023D44EE2456FEEF75F007
:10388E0030A42434FD740335F0FF900459E02DFD6F
:10389E00E43FFFEE75F003A4FC7B009000E7E0F53B
:1038AE00718B728C828B83C007C006C0051243EBEE
:1038BE00AC83D005D006D0078C038D828F83EBF0BE
:1038CE00900458E075F030A42434FD740335F0FFF5
:1038DE0074102DFDE43FFF900459E02DFDE43FFFF1
:1038EE00EE75F003A4D394FFF4FE7C009000E7E0A5
:1038FE00F5718C728E828C83C007C0051243EBAEBD
:10390E0083D005D0078E048D828F83ECF0900458FF
:10391E00E075F030A42434FE740335F0FF74202ECD
:10392E00FEE43FFF900459E02EF582E43FF583E478
:10393E00F0023D449000E9E0FFBF033F900459E0E0
:10394E002424FEE43404FD9000EAE08E828D83F0A0
:10395E00900459E02434FEE43404FD9000EAE08E35
:10396E00828D83F0900459E02444FEE43404FD90EB
:10397E0000EAE08E828D83F0023BA9BF0400400373
:10398E00023B7CBF00028022BF01028005BF021AEB
:10399E008011900459E0904F4E93FF900457E02F02
:1039AE00FF802A900457E0FF8023900459E0FEBE6A
:1039BE00080050098E057407C39DFD8004EE24F89F
:1039CE00FDED75F024A4FD900457E02DFFBF5500CA
:1039DE004003023A67900459E02424FEE43404FDC7
:1039EE008F04EC75F003A4D394FFF4FC7B009000DD
:1039FE00EAE0F5718B728C828B83C007C006C0051E
:103A0E001243EBAC83D005D006D0078C038E828D8B
:103A1E0083EBF0900459E02434F582E43404F5830A
:103A2E00E4F0900459E02444FEE43404FDEF75F014
:103A3E0003A4FC7B009000EAE0F5718B728C828B04
:103A4E0083C006C0051243EBAC83D005D0068C03B1
:103A5E008E828D83EBF0023BA9BFAA004003023A8F
:103A6E00F78F06EE24ABFE900459E02424F582E491
:103A7E003404F583E4F0900459E02434FDE4340476
:103A8E00FCEE75F003A4FB7A009000EAE0F5718A73
:103A9E00728B828A83C006C005C0041243EBAB83CF
:103AAE00D004D005D0068B028D828C83EAF0900470
:103ABE0059E02444FDE43404FCEE75F003A4D394E1
:103ACE00FFF4FE7B009000EAE0F5718B728E828B24
:103ADE0083C005C0041243EBAE83D004D0058E0321
:103AEE008D828C83EBF0023BA9EF2456FF90045994
:103AFE00E02424FEE43404FDEF75F003A4FC7B0007
:103B0E009000EAE0F5718B728C828B83C007C00641
:103B1E00C0051243EBAC83D005D006D0078C038EC4
:103B2E00828D83EBF0900459E02434FEE43404FDDE
:103B3E00EF75F003A4D394FFF4FF7C009000EAE04D
:103B4E00F5718C728F828C83C006C0051243EBAF69
:103B5E0083D005D0068F048E828D83ECF0900459AD
:103B6E00E02444F582E43404F583E4F0802D9004DF
:103B7E0059E02424F582E43404F583E4F0900459EA
:103B8E00E02434F582E43404F583E4F0900459E043
:103B9E002444F582E43404F583E4F0900459E0FF04
:103BAE00BF08004003023D44900061E020E10302A3
:103BBE003C44EF2424FDE43404FE9000EAE0F57169
:103BCE00757200900032C006C0051243EBAC83D074
:103BDE0005D0068C038D828E83EBF0900459E02481
:103BEE0034FEE43404FD9000EAE0F5717572009045
:103BFE000078C006C0051243EBAC83D005D0068C0E
:103C0E00038E828D83EBF0900459E02444FEE4345D
:103C1E0004FD9000EAE0F571757200900032C00666
:103C2E00C0051243EBAC83D005D0068C038E828D7B
:103C3E0083EBF0023D44308D67EF2424FDE4340421
:103C4E00FE9000EAE0F5717572009000FFC006C0AC
:103C5E00051243EBAC83D005D0068C038D828E8388
:103C6E00EBF0900459E02434FEE43404FD9000EAB5
:103C7E00E0F5717572009000B4C006C0051243EBFA
:103C8E00AC83D005D0068C038E828D83EBF090042E
:103C9E0059E02444F582E43404F583E4F0023D4413
:103CAE00900062E07049EF2424F582E43404F58339
:103CBE00E4F0900459E02434FEE43404FD9000EA6C
:103CCE00E0F5717572009000FFC006C0051243EB5F
:103CDE00AC83D005D0068C038E828D83EBF09004DE
:103CEE0059E02444F582E43404F583E4F08047EF90
:103CFE002424F582E43404F583E4F0900459E0249E
:103D0E0034F582E43404F583E4F0900459E024445D
:103D1E00FFE43404FE9000EAE0F571757200900045
:103D2E00FFC007C0061243EBAD83D006D0078D044B
:103D3E008F828E83ECF0900459E02401F0E0FFBFF7
:103D4E0010004032900459E4F0900458E02401F041
:103D5E00E0FFBF050C9000E8E0FE900456E02EF068
:103D6E0022BF060040109000EBE0FF900457E02FBA
:103D7E00F0900458E4F022900454E0FF24FA50012D
:103D8E0022EF2F903D9573800A801C802E804080FC
:103D9E00528064900455E0FFE07003D28422BF018C
:103DAE0003D2C122D28322900455E0FFE07003D2E9
:103DBE00C722BF0103D2C222D2C622900455E0FF11
:103DCE00E07003D28222BF0103D2C322D28F22908F
:103DDE000455E0FFE07003D2B522BF0103D2C42226
:103DEE00D2B622900455E0FFE07003D2B422BF0198
:103DFE0003D2C522D2B322900455E0FFE07003D265
:103E0E009122BF0103D29222D29322900454E0FF5A
:103E1E00BF0512900455E075F010A42424FD74041F
:103E2E0035F0FE8019EF75F030A42434FC740335A0
:103E3E00F0FF900455E0C454F02CFDE43FFE8D825B
:103E4E008E83E0FFFB7C002BFBEC33FCEB2BFBECBF
:103E5E0033FCE4C39B74049CF5C3EF2F25E0FFC332
:103E6E00E49FF5CE8D828E83A3E0FFFB7C002BFBBF
:103E7E00EC33FCEB2BFBEC33FCE4C39B74049CF5A2
:103E8E00C4EF2F25E0FFC3E49FF5C18D828E83A37F
:103E9E00A3E0FFFB7C002BFBEC33FCEB2BFBEC33AA
:103EAE00FCE4C39B74049CF5C5EF2F25E0FFC3E42F
:103EBE009FF5C274032DFCE43EFF8C828F83E07A63
:103ECE000025E0FBEA33FAEB2BFBEA33FAE4C39B63
:103EDE0074049A90FFEDF08C828F83E025E025E04C
:103EEE00FC90FFD5C3E49CF074042DFCE43EFF8CE3
:103EFE00828F83E07A0025E0FBEA33FAEB2BFBEAB4
:103F0E0033FAE4C39B74049A90FFECF08C828F8397
:103F1E00E025E025E0FC90FFD4C3E49CF074052D71
:103F2E00FCE43EFF8C828F83E07A0025E0FBEA33CF
:103F3E00FAEB2BFBEA33FAE4C39B74049A90FFEB83
:103F4E00F08C828F83E025E025E0FC90FFD3C3E464
:103F5E009CF074062DFCE43EFF8C828F83E07A0089
:103F6E0025E0FBEA33FAEB2BFBEA33FAE4C39B744E
:103F7E00049A90FFEAF08C828F83E025E025E0FC26
:103F8E0090FFD2C3E49CF074072DFCE43EFF8C82BC
:103F9E008F83E07A0025E0FBEA33FAEB2BFBEA3362
:103FAE00FAE4C39B74049A90FFE9F08C828F83E04D
:103FBE0025E025E0FC90FFD1C3E49CF074082DFCB5
:103FCE00E43EFF8C828F83E07A0025E0FBEA33FA31
:103FDE00EB2BFBEA33FAE4C39B74049A90FFE8F0F0
:103FEE008C828F83E025E025E0FC90FFD0C3E49C1B
:103FFE00F074092DFCE43EFF8C828F83E07A00255D
:10400E00E0FBEA33FAEB2BFBEA33FAE4C39B7404CE
:10401E009A90FFF3F08C828F83E025E025E0FC90F0
:10402E00FFDBC3E49CF0740A2DFCE43EFF8C828F10
:10403E0083E07A0025E0FBEA33FAEB2BFBEA33FA56
:10404E00E4C39B74049A90FFF2F08C828F83E02578
:10405E00E025E0FC90FFDAC3E49CF0740B2DFCE449
:10406E003EFF8C828F83E07A0025E0FBEA33FAEB89
:10407E002BFBEA33FAE4C39B74049A90FFF1F08CA5
:10408E00828F83E025E025E0FC90FFD9C3E49CF00D
:10409E00740C2DFCE43EFF8C828F83E07A0025E0C9
:1040AE00FBEA33FAEB2BFBEA33FAE4C39B74049A74
:1040BE0090FFF0F08C828F83E025E025E0FC90FFEE
:1040CE00D8C3E49CF0740D2DFCE43EFF8C828F83EC
:1040DE00E07A0025E0FBEA33FAEB2BFBEA33FAE455
:1040EE00C39B74049A90FFEFF08C828F83E025E0DF
:1040FE0025E0FC90FFD7C3E49CF0740E2DFCE43E4B
:10410E00FF8C828F83E07A0025E0FBEA33FAEB2BFB
:10411E00FBEA33FAE4C39B74049A90FFEEF08C82B0
:10412E008F83E025E025E0FC90FFD6C3E49CF0747D
:10413E000F2DFDE43EFE8D828E83E07C0025E0FF98
:10414E00EC33FCEF2FFFEC33FCE4C39F74049C9024
:10415E00FFF9F08D828E83E025E025E0FD90FFE1F2
:10416E00C3E49DF02290FF8074CAF090FF81740822
:10417E00F090FF82F090FF83F090FF84F090FF8527
:10418E00F090FF86748AF090FF877408F090FF8895
:10419E00F090FF89F090FF8AF090FF8BF090FF8CEB
:1041AE00748AF090FF917408F075DA8AF5DBF5DC0D
:1041BE002290FF807402F090FF81E4F090FF82F075
:1041CE0090FF83F090FF84F090FF85F090FF86744F
:1041DE0002F090FF87E4F090FF88F090FF89F09056
:1041EE00FF8AF090FF8BF090FF8C7402F090FF919D
:0A41FE00E4F075DA02F5DBF5DC22CF
:104EFE00C3A587785A4B3C3C4B5A7887A5C3E1FF34
:104F0E00C3A587694B2D1E1E2D4B6987A5C3E1FFD7
:104F1E00C3A587694B2D0F0F2D4B6987A5C3E1FFE5
:104F2E00C3A587694B2D1E1E2D4B6987A5C3E1FFB7
:104F3E00C3A587785A4B3C3C4B5A7887A5C3E1FFF3
:104F4E0000102030405060708090A0B0C0D0E0F0D3
:054F5E0000336699CC50
:10420800AF82BFA502800ABFA6028009BFA70E80A1
:1042180008900001229000022290000422900000E1
:1042280022AF82BFA80050030242EEEF243D5003A4
:104238000242EEEF2458FF240A83F582EF241F83FD
:10424800F583E47382868A8E929EA6AAA2AEB2B63F
:10425800C2C6CACED2D6E2969ADADEBABEE6EA423A
:104268004242424242424242424242424242424226
:10427800424242424242424242429000E22290007E
:10428800E9229000EA229000B5229000B622900020
:10429800B3229000B4229000B7229000CC22900064
:1042A800CD229001832290018A22900192229001CE
:1042B800942290019F229001CB2290022122900209
:1042C8002322900224229002252290022622900284
:1042D800272290006F229000702290022A229002DA
:1042E8009F229002A02290000022AE82AF83BE4E91
:1042F8005FBF7E5CE51F602B120E92E58254226040
:104308001175123590002575F000120DD7120A6943
:10431800803A75122990002575F000120DD7120AFF
:10432800698029120E92E582542260117513359026
:10433800002575F000120E0F120A69800F751329F7
:1043480090002575F000120E0F120A69758200227E
:044358007582012247
:104F63004E7E1E001F00200021002200230024008B
:104F73002500260027002D002E002A000000000037
:104F83002B0014001A000800150017001C0018005D
:104F93000C00120013002F0030003100000000004D
:104FA300390004001600070009000A000B000D0079
:104FB3000E000F0033003400000028000000000042
:104FC300E1001D001B000600190005001100100080
:104FD30036003700380000000000E50052004C00A6
:104FE300E000E200E300000000002C0000000000ED
:104FF300E3004D7E50000000000051004F00000010
:105003004E7E1E001F0020002100220023002400EA
:105013002500260027002D002E002A000000000096
:105023002B0014001A000800150017001C001800BC
:105033000C00120013002F003000310000000000AC
:10504300390004001600070009000A000B000D00D8
:105053000E000F00330034000000280000000000A1
:10506300E1001D001B0006001900050011001000DF
:1050730036003700380000000000E50052004C0005
:10508300E000E200E300000000002C00000000004C
:10509300E300235250000000000051004F000000C5
:1050A3003500BE00BD00C100C00003780478BC0019
:1050B300AE00BB00A800AA00A9004C00000000003D
:1050C3004B7E417E427E437E407E01000100010013
:1050D30001000100010001000100010000000000C7
:1050E30001000100010001000100010001000100B5
:1050F30001000100010001000000010000000000A8
:1051030001000100010001004C7E010001000100CB
:10511300497E487E4A7E000000000100467E010071
:105123000100010001000000000001000000000078
:1051330001000100457E00000000477E447E000020
:1051430035003A003B003C003D003E003F0040007C
:10515300410042004300440045004C0000000000B1
:105163004B7E417E427E437E407E01000100010072
:105173000100010001000100010001000000000026
:105183000100010001000100010001000100010014
:105193000100010001000100000001000000000007
:1051A30001000100010001004C7E0100010001002B
:1051B300497E487E4A7E000000000100467E0100D1
:1051C30001000100010000000000010000000000D8
:1051D30001000100457E00000000477E447E000080
:06010D00E478FFF6D8FDC6
:10435C00AD82AE83AFF08D768E778F78857179854F
:10436C00727A85737BA874A9758803890418B8FFC1
:10437C000119EB4C6025857982857A83857BF01257
:10438C004C37FCA385827985837A8D828E838FF05E
:10439C00EC1243D0A3AD82AE8380CE857682857736
:1043AC00838578F022AC82AD83AE72AF73BE00040D
:1043BC00EF600C1F0FE5711243D0A3DEFADFF88C0F
:0443CC00828D832239
:1000EB007904E94400601B7A019051EE785A75A0AF
:1000FB0004E493F2A308B8000205A0D9F4DAF27570
:02010B00A0FF53
:1000B400C000A88118C0D0B6001B18B67000401547
:1000C400B697005010C0E0E65407B406005004E6AA
:0A00D40054F8F6D0E0D0D0D000328E
:1043D00020F71130F6138883A88220F509F6A88308
:1043E0007583002280FEF280F5F022E5828571F06F
:1043F000A4C582C0F08572F0A4D0F025F0C58385F5
:1044000071F0A42583F5832285827685837785F0F4
:1044100078E5744575700490000022AA71AB72AC07
:1044200073A874A97518B8FF0119E8496043C00062
:10443000C001AD76AE77AF788D828E838FF0124C4F
:1044400037FD8A018B068C0789828E838FF0124C90
:1044500037F9EDB501028006D001D0008013D001FC
:10446000D0000576E4B5760205770ABA00B70B806E
:10447000B48A718B728C73AD76AE77AF788D828E85
:10448000838FF0124C37FD7F00AB71AC72AE738B33
:10449000828C838EF0124C37FB7E00EDC39BF5823D
:0544A000EF9EF58322F0
:100113007800E84400600A790075A000E4F309D888
:10012300FC785AE84404600C7905900000E4F0A3DD
:04013300D8FCD9FA21
:1044A500C0708581707E008E831213DAD0702285EC
:1044B500825585835685F057E4F552F553F55485B5
:1044C50044589044A502458BC070E581F57024FBE6
:1044D500F558E4F552F553F554E57024FBF8865587
:1044E5000886560886579044A512458BD07022AF92
:1044F50082C048C049C04A1245018007C046C0472E
:104505008F82221581158115810550E4B55002056C
:104515005122AF8274302FFF24C6500B74072FFF32
:10452500E54560034307208F820244F4E582FFC41A
:10453500540FF582C007124517D007740F5FF58237
:10454500024517858271AB4BAC4CAD4DAE4EAA4FB3
:10455500757320EA2AF572EE2354014572FAEB2BA6
:10456500FBEC33FCED33FDEE33FEC3EA95714008F9
:10457500EAC39571FA430301D573D88B4B8C4C8DE7
:104585004D8E4E8A4F2285824685834785524885C2
:10459500534985544AE4F550F551AD55AE56AF57DC
:1045A5008D828E838FF0124C37FC74012DF555E406
:1045B5003EF5568F57ECFF7003024C18BF2502805D
:1045C50003024C10E4F559F55AF55BF55CF55DF51C
:1045D5005EF55FF560F562F563F5647565FF756613
:1045E500FFAC55AD56AE578C828D838EF0124C378D
:1045F500F56AA3AC82AD838C558D568E577425B55F
:104605006A08856A821244F4809074D0256A400352
:104615000246B0E56A24C650030246B074FFB5658C
:104625004BB56648C004C005C006856371856472D4
:1046350090000AC006C005C0041243EBAA82AB83F2
:10464500D004D005D006AE6A7D00EE2AFAED3BFB1C
:10465500EA24D0F563EB34FFF564E5634564D006E1
:10466500D005D0047081755A010245ECC004C0051F
:10467500C00685657185667290000AC006C005C0D2
:10468500041243EBAA82AB83D004D005D006AD6AF1
:104695007E00ED2AFAEE3BFBEA24D0F565EB34FF0C
:1046A500F566D006D005D0040245EC742EB56A1522
:1046B50074FFB56505B5660280030245ECE4F56552
:1046C500F5660245EC749F256A500EE56A2485401F
:1046D50008536ADF75450180037545007420B56A86
:1046E5000302477D742BB56A03024777742DB56ABB
:1046F5000280797442B56A030247837443B56A033D
:1047050002478F7444B56A030249217446B56A03AA
:104715000249387448B56A030245EC7449B56A0321
:10472500024921744AB56A030245EC744CB56A0224
:104735008052744FB56A030249297450B56A030261
:1047450048B67453B56A0280627454B56A0302456B
:10475500EC7455B56A0302492E7458B56A030249CB
:1047650033745AB56A030245EC02493D7559010295
:1047750045EC755B010245EC755C010245EC755E27
:10478500010245EC755F010245ECE55E600AE558FE
:1047950014F989588706800BE55824FEFD8D588D40
:1047A5000187068E821244F4024949E55824FDFE2C
:1047B5008E588E01870409870509870619198C4BC0
:1047C5008D4C8E4D8C828D838EF0124C1F85826BA5
:1047D50085836C74FFB56509B56606856B65856C63
:1047E50066E559703DC3E56B9563E56C956450329C
:1047F500E563C3956BF563E564956CF564AC63ABF4
:10480500648C028B061CBCFF011BEA4E601075828E
:1048150020C004C0031244F4D003D00480E38C63A9
:104825008B64AD65AE66AA4BAB4CAC4D8A828B836F
:104835008CF0124C37FC6033C3E49D74808EF063BA
:10484500F08095F050251DBDFF011E8C82C006C06D
:10485500051244F4D005D006AA4BAB4CAC4D0ABAB0
:1048650000010B8A4B8B4C8C4D80BBE559700302C4
:104875004949C3E56B9563E56C9564400302494975
:10488500E563C3956BF563E564956CF564AE63AD5F
:10489500648E038D041EBEFF011DEB4C700302499F
:1048A50045758220C006C0051244F4D005D00680A7
:1048B500E0E55824FDFC8C588C0187020987030923
:1048C500870419198A4B8B4C8C4DAC4DBC8000402C
:1048D500047B438014BC600040047B50800BBC40CB
:1048E5000040047B4980027B588B82C0031244F44C
:1048F50075823A1244F47582301244F47582781246
:1049050044F4D003BB4902800BBB50028006854CA2
:1049150082124531854B821245318028755D0175BE
:10492500620A8020756208801B75620A80167562AE
:10493500108011756001800C856A821244F4800430
:104945008E638D64E560605BE55824FCFE8E588EB1
:104955000187030987040987050987061919198B32
:104965004B8C4C8D4D8E4E754BE3754C51754D8072
:10497500854B6D854C6E854D6F7401256DFAE4355B
:104985006EFBAE6F8A4B8B4C8E4D856D82856E832B
:10499500856FF0124C37FD700302459F8D821244DE
:1049A500F480CDE562700302459FE55E6032E5580F
:1049B50014F9895887067D007C007B008E4B8D4C51
:1049C5008C4D8B4EE55D7072AB4BAC4CAD4DAE4E28
:1049D5007C007D007E008B4B8C4C8D4D8E4E805A1D
:1049E500E55F6021E55824FCFE8E588E018703099A
:1049F50087040987050987061919198B4B8C4C8D76
:104A05004D8E4E8035E55824FEFE8E588E01870565
:104A150009870619EE3395E0FCFB8D4B8E4C8C4DCA
:104A25008B4EE55D7014AB4BAC4CAD4DAE4E7D0081
:104A35007E008B4B8C4C8D4D8E4EE55D602DAB4BCA
:104A4500AC4CAD4DE54E30E71FAB4BAC4CAD4DAE70
:104A55004EC3E49BFBE49CFCE49DFDE49EFE8B4B76
:104A65008C4C8D4D8E4E8003755D0075610179818D
:104A7500E4F56DF56E754F00856282C001124548FB
:104A8500D001E5617013E54FC454F0FCE54FC45403
:104A95000F4204E74CF7198002A74F7401256DF505
:104AA5006DE4356EF56EE561B40100E433F561AA98
:104AB5004BAB4CAC4DAE4EEA4B4C4E70B88969854C
:104AC5006D67856E68E56345647005756301F5641A
:104AD500E55A702FE559702BAA63AB64AE670E8E4D
:104AE500057E00C3ED9AEE9B5015758220C003C06C
:104AF500021244F4D002D0031ABAFF011B80DD8AEA
:104B0500638B64E55D601175822D1244F415637441
:104B1500FFB563021564802EE56745686028E55B8F
:104B2500601175822B1244F4156374FFB563021589
:104B3500648013E55C600F7582201244F41563747C
:104B4500FFB563021564E559702FAE63AD648E033E
:104B55008D041EBEFF011DC3E5679BE5689C503AA9
:104B6500E55A60047C3080027C208C82C006C0053A
:104B75001244F4D005D00680D5C3E5679563E56892
:104B85009564500FE563C39567F563E5649568F52E
:104B950064800BE4F563F56480048E638D64A96914
:104BA500AD67AE688D038E041DBDFF011EEB4C6025
:104BB5002FE561B40100E433F561700909E7C454D8
:104BC5000FF54F80078704740F5CF54F854F82C042
:104BD50006C005C001124517D001D005D00680C416
:104BE500E559700302459FAD63AE648D038E041DC8
:104BF500BDFF011EEB4C700302459F758220C00668
:104C0500C0051244F4D005D00680E08F821244F42A
:0A4C150002459F85508285518322DD
:0B51E3003C4E4F20464C4F41543E0014
:104C1F00AA82AB83124C376003A380F8C3E5829A54
:084C2F00F582E5839BF5832269
:0D00DE00758181124C53E58260030200B170
:104C370020F71430F6148883A88220F507E6A883A6
:104C470075830022E280F7E49322E0227582002236
:00000001FF
