:040000000200DE32EA
:01000B0032C2
:0100130032BA
:01001B0032B2
:0100230032AA
:01002B0032A2
:01003300329A
:03003B0002173772
:0300430002134E57
:01004B003282
:01005300327A
:01005B003272
:01006300326A
:03006B000213CCB1
:100070000000E2FBEAF2802C0000E0FBEAF08024C2
:10008000E6B50202EBF62200E2B50202EBF2220034
:10009000E0B50202EBF02230F6E0A88220F5D3EAC8
:1000A000C6F582228B822230F6E6A88220F5D9801E
:0100B000CF80
:030157000200B1F2
:0300B100020268E0
:10015A00AF82BFA502800ABFA6028009BFA70E8090
:10016A0008900001229000022290000422900000D0
:10017A0022AF82BFA8005003020240EF243D500381
:10018A00020240EF2458FF240A83F582EF241F83DA
:10019A00F583E473D4D8DCE0E4F0F8FCF400040856
:1001AA0014181C20242834E8EC2C300C10383C019C
:1001BA00010101010101010102020202020202021D
:1001CA00020201010202020202029000E2229000EF
:1001DA00E9229000EA229000B5229000B62290000F
:1001EA00B3229000B4229000B7229000CC22900053
:1001FA00CD229001832290018A22900192229001BD
:10020A00942290019F229001CB22900221229002F7
:10021A002322900224229002252290022622900272
:10022A00272290006F229000702290022A229002C8
:10023A009F229002A0229000002212134A12109DBF
:10024A0012138F122D881204FD120ED91214D243E2
:10025A00B54043B94043B54085B9B9D2AF2212215E
:10026A00C9120244748CC0E0744CC0E07480C0E0CF
:10027A001245021581158115817499C0E0744CC02C
:10028A00E07480C0E0124502158115811581900342
:10029A00E81210DB1230011223BE1234549003E824
:1002AA001210DB75B10012301212331512085B12EC
:0702BA0021EB12100780EC9C
:104C8C00534D4B2076616C7068610D0A004445569B
:104C9C00494345207649643A307830356163207059
:0C4CAC0049643A3078303234660A0D005A
:1002C100AF82BFA502800ABFA6028009BFA70E8028
:1002D1000890000122900002229000042290000068
:1002E10022AF82BFA80050030203A7EF243D5003B1
:1002F1000203A7EF2458FF240A83F582EF241F830A
:10030100F583E4733B3F43474B575F635B676B6F19
:100311007B7F83878B8F9B4F53939773779FA30328
:10032100030303030303030303030303030303039C
:10033100030303030303030303039000E22290007A
:10034100E9229000EA229000B5229000B6229000A6
:10035100B3229000B4229000B7229000CC229000EA
:10036100CD229001832290018A2290019222900154
:10037100942290019F229001CB229002212290028F
:10038100232290022422900225229002262290020A
:10039100272290006F229000702290022A22900260
:1003A1009F229002A022900000220232BE0232DB84
:1003B100AE82AF8390045AE0FCA3E0FDEEB50405E4
:1003C100EFB505012290045AEEF0EFA3F090000082
:1003D1007401F0900001EEF0EFA3F0900000023202
:1003E100F8AE82AF8390045CE0FCA3E0FDEEB504BF
:1003F10005EFB505012290045CEEF0EFA3F090004B
:10040100007402F0900001EEF0EFA3F09000000202
:0204110032F8BF
:045223000000000087
:10041300AF82BFA502800ABFA6028009BFA70E80D4
:100423000890000122900002229000042290000014
:1004330022AF82BFA80050030204F9EF243D50030A
:100443000204F9EF2458FF240A83F582EF241F8363
:10045300F583E4738D9195999DA9B1B5ADB9BDC1EE
:10046300CDD1D5D9DDE1EDA1A5E5E9C5C9F1F50406
:100473000404040404040404040404040404040439
:10048300040404040404040404049000E22290001D
:10049300E9229000EA229000B5229000B622900053
:1004A300B3229000B4229000B7229000CC22900097
:1004B300CD229001832290018A2290019222900101
:1004C300942290019F229001CB229002212290023C
:1004D30023229002242290022522900226229002B7
:1004E300272290006F229000702290022A2290020D
:1004F3009F229002A0229000002275080075090037
:10050300750A007F00BF1000501BEF2403F582E43F
:100513003400F583E4F0EF2413F582E43400F5832B
:10052300E4F00F80E022E5822403F582E43400F551
:1005330083E0F5822285098222E582C42354E0FF09
:100543002498FDE4344FFEE50B250BFC2DF582E4E6
:100553003EF583E493FDA3E493FEE50C60067AC9BC
:100563007B4C80047ACC7B4C8B017B80C007C0061C
:10057300C005C004C002C001C003C005C00674B8F2
:10058300C0E0744CC0E0EBC0E0124502E58124F802
:10059300F581D004D005D006D0078D028E03C3EABF
:1005A3009420EB9452403F743F9A74529B4037E53A
:1005B3000C60098D03741F5BF50A800C9000257590
:1005C300F000120E47750A00AA0A7B00C002C0039E
:1005D30074D1C0E0744CC0E07480C0E0124502E501
:1005E3008124FBF58122E50A6033E50A75F0A0A4B6
:1005F3002498FA744F35F0FBEF2AFAE43BFBEC2A1C
:10060300F582E43BF583E493FCA3E493FF8C028F30
:1006130003BA0105BB000280048C058F06850C40DC
:100623008D828E83C006C0051230E1E582D005D0ED
:1006330006700122850C1F8D828E83C006C00512B1
:100643004327E582D005D0067001228D048E07C3AF
:10065300EC94E0EF9400403E74E79CE49F4037E560
:100663000C60198D0374075BF5F005F074018002CB
:1006730025E0D5F0FBF582120E9680178D037407E3
:100683005BF5F005F07401800225E0D5F0FBF582FF
:10069300120E9B020A69C3EC9404EF940040267483
:1006A300A49CE49F401FE50C600D8D1290002575FE
:1006B300F000120DD7800B8D1390002575F00012FA
:1006C3000E0F020A69C3EC94A5EF9400403F74A790
:1006D3009CE49F4038E50C602E8D03BBA502800A85
:1006E300BBA602800BBBA714800C7A017B00801091
:1006F3007A027B00800A7A047B0080047A007B0004
:100703008A828B830203B19000000203B1C3EC948D
:10071300A8EF94005003020841C374C29CE49F50A5
:1007230003020841E50C700302083B8D07BFA800D4
:100733005003020830EF243D5003020830EF2458E1
:10074300FF240A83F582EF241F83F583E473878EE6
:10075300959CA3B8C4CABED0D6DCEEF4FA00060C4E
:100763001EAAB11218E2E8242A070707070707079A
:100773000707070707070707080808080707080800
:10078300070708087CE27F000208347CE97F000247
:1007930008347CEA7F000208347CB57F0002083409
:1007A3007CB67F000208347CB37F000208347CB43B
:1007B3007F000208347CB77F0080767CCC7F00808A
:1007C300707CCD7F00806A7C837F0180647C8A7F1C
:1007D30001805E7C927F0180587C947F0180527CF3
:1007E3009F7F01804C7CCB7F0180467C217F0280F0
:1007F300407C237F02803A7C247F0280347C257FE7
:1008030002802E7C267F0280287C277F0280227C28
:100813006F7F00801C7C707F0080167C2A7F0280A3
:10082300107C9F7F02800A7CA07F0280047C007F73
:10083300008C828F830203E29000000203E2C00572
:10084300C00674E5C0E0744CC0E07480C0E012459B
:1008530002E58124FBF58122120538E5827003F558
:100863008222900023E4F0FFBF1000503990002350
:10087300E0FEE07031EF2413F582E43400F583E009
:10088300FD8F82C007C006C005120529AC82D005C2
:10089300D006D007EC6205EE4205900023ED24FF5D
:1008A300E433F00F80C2900023E0FFE07005F50908
:1008B3008F82227F00BF1000506C8F82C007120509
:1008C30029AE82D007EF2413F582E43400F583E0E8
:1008D300FDEE6205ED604C9000247401F07C00BCD9
:1008E30005005033900024E0FB5D6021EE5203EBE2
:1008F30024FFE433F50C8F0B8C82C007C006C005C0
:10090300C00412053CD004D005D006D0070C9000DB
:1009130024E025E0F080C8EF2413F582E43400F5E9
:1009230083EEF00F808F750900900023E0F582229B
:100933001235E8E5097023850882122CFF850882A9
:10094300122D69AF82C007122D7BD007E50824035F
:10095300F582E43400F583EFF4F085081E9000611E
:1009630075F0001235FA74F125084007E50804F51F
:0C0973000880067508007509010236496D
:104CB8004B45593A203078253034782025730D0A31
:104CC80000555000444F574E004348414E47454415
:104CD800204C415945523A2025640D0A00554E5240
:104CE80045434F474E495A4544204B45593A203091
:084CF80078253034780D0A0024
:06013700750D00750E00BD
:10097F00AF82BFA502800ABFA6028009BFA70E8063
:10098F0008900001229000022290000422900000A3
:10099F0022AF82BFA8005003020A65EF243D500327
:1009AF00020A65EF2458FF240A83F582EF241F8380
:1009BF00F583E473F9FD010509151D211925292D6D
:1009CF00393D4145494D590D11515531355D61093C
:1009DF00090A0A0A0A0A0A0A0A0A0A0A0A0A0A0A69
:1009EF000A0A0A0A0A0A0A0A0A0A9000E222900070
:1009FF00E9229000EA229000B5229000B6229000E2
:100A0F00B3229000B4229000B7229000CC22900025
:100A1F00CD229001832290018A229001922290018F
:100A2F00942290019F229001CB22900221229002CA
:100A3F002322900224229002252290022622900245
:100A4F00272290006F229000702290022A2290029B
:100A5F009F229002A022900000221215C2AF82BFE7
:100A6F000109900063E06003020ACB020A7D900047
:100A7F0025E50DF0E50D450E900025F075712D75EE
:100A8F00720075730075740875750090002575F008
:100A9F000012443DE5828583F045F0601E75712597
:100AAF0075720075730075740875750090002D755B
:100ABF00F0001243919000250203AB229000357491
:100ACF0006F0900036E50DF0E50D450E900036F07E
:100ADF0075714B757200757300757416757500908E
:100AEF00003575F00012443DE5828583F045F060D6
:100AFF001E757135757200757300757416757500F6
:100B0F0090004B75F0001243919000350203AE2216
:100B1F00AD82AE83AFF074022DFDE43EFE7C06C0C5
:100B2F0007C006C005C0041215C2AB82D004D005A1
:100B3F00D006D007BB010E900063E060087D377EC2
:100B4F00007F007C147B008C021CEA60158D828E66
:100B5F00838FF0124C6CFAA3AD82AE83EA60E80B80
:100B6F0080E58B8222AD82AE83AFF0C007C006C096
:100B7F00051215C2AC82D005D006D007BC0140903B
:100B8F000063E0603A7C00BC14005012EC2437FA8A
:100B9F00E43400FB8A828B83E070030C80E9ECC4A1
:100BAF000354F8FBEC2437F582E43400F583E0F5C9
:100BBF0082C003120EADAC82D003EC4BF5822274CF
:100BCF00022DFDE43EFE8D828E838FF0124C6CF56C
:100BDF008222AD82AE83AFF0E50F7003F58222C0A3
:100BEF0007C006C0051215C2AC82D005D006D007CB
:100BFF00BC0148900063E06042E50FC423541FFC22
:100C0F00BC14005032EC2437F582E43400F583E550
:100C1F000F5407F5F005F07C017B008006EC2CFCEF
:100C2F00EB33FBD5F0F7E07A005204EA5203EC4BBA
:100C3F0024FFE433F582227582002274022DFDE435
:100C4F003EFE7C00BC0600501BEC2DF9E43EFA8FF3
:100C5F000389828A838BF0124C6CB50F0475820165
:100C6F00220C80E075820022AD82AE83AFF07CFF54
:100C7F007B00C3EB64809486502974022DF8E43E08
:100C8F00F98F02EB28F8E439F9888289838AF01208
:100C9F004C6CFAB57102800BBCFF05EA70028B0435
:100CAF000B80CFBB061EBCFF012274022DFDE43E5C
:100CBF00FEEC2DFCE43EFB8F028C828B838AF0E5E9
:100CCF007102440522AD82AE83AFF074022DFDE4B4
:100CDF003EFE7C00BC06005021EC2DF9E43EFA8F5D
:100CEF000389828A838BF0124C6CB5710A89828AD0
:100CFF00838BF0E41244050C80DA22AD82AE83AF11
:100D0F00F0E510C423541FFCBC1400503674022DA0
:100D1F00FDE43EFEEC2DFCE43EFB8F02E510540794
:100D2F00F5F005F07401800225E0D5F0FBFF8C8211
:100D3F008B838AF0124C6C42078C828B838AF0EF84
:100D4F00024405AE107F00C006C0077400C0E074F7
:100D5F004DC0E07480C0E0124502E58124FBF581AF
:100D6F0022AD82AE83AFF0E511C423541FFCBC1437
:100D7F0000503774022DFDE43EFEEC2DFCE43EFBEB
:100D8F008F02E5115407F5F005F07401800225E09C
:100D9F00D5F0FBF4FF8C828B838AF0124C6C5207D8
:100DAF008C828B838AF0EF024405AE117F00C00660
:100DBF00C007741EC0E0744DC0E07480C0E01245DF
:100DCF0002E58124FBF58122AD82AE83AFF0C0072F
:100DDF00C006C0051215C2AC82D005D006D007BC24
:100DEF000112900063E0600C85121090003575F0D1
:100DFF0000020D0A8512718D828E838FF0020C779F
:100E0F00AD82AE83AFF0C007C006C0051215C2ACED
:100E1F0082D005D006D007BC0112900063E0600CB1
:100E2F0085131190003575F000020D708513718DCB
:100E3F00828E838FF0020CD4AD82AE83AFF0C007E9
:100E4F00C006C0051215C2AC82D005D006D007BCB3
:100E5F000118900063E0601275710075721475735C
:100E6F000090003775F0000243E674022DFDE43E5A
:100E7F00FE7571007572067573008D828E838FF00B
:100E8F000243E6850D8222E582420D22E582F4526D
:100E9F000D2285820D22750D0022850E8222AF82D2
:100EAF007E00EFC4540FFD60048D077E04EF030333
:100EBF00543FFD60088D078E0574022DFEEFC3139E
:0A0ECF0060058E07EF04FE8E8222FC
:104D00006164645F6B65795F6269743A2063616EA8
:104D10002774206164643A20253032580A006465A3
:104D20006C5F6B65795F6269743A2063616E2774AA
:0C4D30002064656C3A20253032580A00DF
:100ED900900061E4F0900062F090006304F022AFAA
:100EE90082BFA502800ABFA6028009BFA70E80089B
:100EF900900001229000022290000422900000221A
:100F0900AF82BFA8005003020FCEEF243D50030269
:100F19000FCEEF2458FF240A83F582EF241F83F5AF
:100F290083E47362666A6E727E868A828E9296A264
:100F3900A6AAAEB2B6C2767ABABE9A9EC6CA0F0F32
:100F49000F0F0F0F0F0F0F0F0F0F0F0F0F0F0F0FA8
:100F59000F0F0F0F0F0F0F0F0F9000E2229000E9F4
:100F6900229000EA229000B5229000B6229000B3A8
:100F7900229000B4229000B7229000CC229000CD9C
:100F8900229001832290018A229001922290019459
:100F99002290019F229001CB2290022122900223CC
:100FA90022900224229002252290022622900227D2
:100FB9002290006F229000702290022A2290029FB4
:100FC900229002A02290000022AF82D20010AF022C
:100FD900C2009000E4E004547FFE9000E5E0FDEEDD
:100FE900B5050280149000E4E02464F582E434003D
:100FF900F583EFF09000E4EEF0A20092AF22121513
:10100900C9E5827001229000E4E0FF9000E5E0FE6E
:10101900EFB5060122E59A30E201229011807407AA
:10102900F07F00BF200050399000E5E0FE9000E419
:10103900E0FDEEB5050280298F060EEE2480FEE460
:101049003411FD9000E5E02464F582E43400F58371
:10105900E08E828D83F09000E5E004547FF00F80EC
:10106900C2BF200050128F060EEE2480F582E434B0
:1010790011F583E4F00F80E9539D80439D21439A44
:1010890004227515069000E60211357516069000C2
:10109900E602122575B20875BC02E5BC20E20575A9
:1010A900B10080F643BC0143B20422AE82AF83BED5
:1010B9000005BF0003801A0F801375B100000000FE
:1010C90000000000000000000000000000DEEBDF6F
:1010D900E922AE82AF838E048F051EBEFF011FEC8D
:1010E9004D60089003E81210B480EB22E493F58276
:1010F90022AE82AF83C2AF8FF78EFB8572FC8571FA
:10110900F275F30575F40A75F50975F60600000020
:101119000075F700D2AF227571E675720090EC0088
:101129000210FA75716E8514720210FAAE82AF83DD
:1011390090EC00C007C0061210F5AD82D006D007AA
:10114900BD5A1590EC01C007C0061210F5AD82D04A
:1011590006D007BDA50280047582002290EC02C06A
:1011690007C0061210F5AD82D006D007EDB51502FD
:101179008004758200227D007C00C3EC9515502BFC
:101189008C037A0074032BFB74EC3AFA8B828A8302
:10119900C007C006C005C0041210F5AB82D004D048
:1011A90005D006D007EB2DFD0C80CFAC157B007464
:1011B900032CFC74EC3BFB8C828B83C007C006C0FC
:1011C900051210F5AC82D005D006D007ECB50502A2
:1011D9008004758200227D00C3ED9515503AED2EED
:1011E900FBE43FFC8D028A017A00740329F974EC4F
:1011F9003AFA89828A83C007C006C005C004C003C1
:101209001210F5AA82D003D004D005D006D0078BDE
:10121900828C83EAF00D80C075820122AE82AF8391
:1012290090EC00C007C0061210F5AD82D006D007B9
:10123900BD5A2990EC01C007C0061210F5AD82D045
:1012490006D007BDA51690EC02C007C0061210F51E
:10125900AD82D006D007EDB516028005751700805E
:1012690003751701E517F51860417D00C3ED951663
:1012790050398D047B0074032CFC74EC3BFB8C828D
:101289008B83C007C006C0051210F5AC82D005D00B
:1012990006D007ED2EF582E43FF583E0FBECB503BC
:1012A90002800575180080030D80C1E518600122D0
:1012B900C007C00612112075145A90EC0012112CA7
:1012C9007514A590EC0112112C85161490EC0212DC
:1012D900112CD006D0077D007C00C3EC9516504236
:1012E9008C037A0074032BFB74EC3AFAEC2EF8E4C5
:1012F9003FF988828983E0F5148B828A83C007C00D
:1013090006C005C004C001C00012112CD000D001D4
:10131900D004D005D006D00788828983E02DFD0C42
:1013290080B8AF167E0074032FFF74EC3EFE8F82E7
:101339008E838D1402112CC2AF75F0A5745A02FF69
:1013490000758F0122C021C0E0C0F0C082C083C0F7
:1013590007C006C005C004C003C002C001C000C068
:10136900D075D000120933D0D0D000D001D002D02E
:1013790003D004D005D006D007D083D082D0F0D0D6
:10138900E0D0210200B475D84075ADFF75AEE675A1
:10139900AF0075870075AB0075AC0053A9BFC201DA
:1013A90010D902800010D802800043A94022AF82E0
:1013B90053A9BFD2018FAA43A94030010575B100D5
:1013C90080F82253A9BF10D9028002C20143A94063
:1013D90032AE82C0061213B7D0068E82020FD2AF88
:1013E90082BFA502800ABFA6028009BFA70E800896
:1013F9009000012290000222900004229000002215
:10140900AF82BFA80050030214CEEF243D5003025F
:1014190014CEEF2458FF240A83F582EF241F83F5A5
:1014290083E47362666A6E727E868A828E9296A25F
:10143900A6AAAEB2B6C2767ABABE9A9EC6CA141423
:101449001414141414141414141414141414141453
:101459001414141414141414149000E2229000E9C2
:10146900229000EA229000B5229000B6229000B3A3
:10147900229000B4229000B7229000CC229000CD97
:10148900229001832290018A229001922290019454
:101499002290019F229001CB2290022122900223C7
:1014A90022900224229002252290022622900227CD
:1014B9002290006F229000702290022A2290029FAF
:1014C900229002A022900000229002ECE4F0900207
:1014D900EDF09002EEF09002EFF09002F0F0C2020F
:1014E9009002F2E4F09002F1F0F522F523F524F5EB
:1014F90025F526F59675945F7595117591C043A9E3
:101509000122AE82AF837D00BDFF00501AE59930FC
:10151900E215900028C007C006C0051210B4D00516
:10152900D006D0070D80E17D007531088E828F834A
:101539008DF0122149539CE0439C0843990422AE43
:1015490082AF837D00BDFF00501AE59A30E2159005
:101559000028C007C006C0051210B4D005D006D0B7
:10156900070D80E17D007532168E828F838DF01212
:101579002189539D80439D16439A0422AE82AF83ED
:101589007D00BDFF00501AE59A30E215900028C091
:1015990007C006C0051210B4D005D006D0070D80CB
:1015A900E17D007532038E828F838DF0122189537C
:1015B9009D80439D03439A04229002EFE0F5822225
:1015C9009002ECE0FFBF0203D38001C3E433F5824C
:1015D90022C2AF9002F375F00012212BD2AF900214
:1015E900F3E0FF9002F4E0FE8F05BD0002802CBD00
:1015F9000103021684BF02030216B9BF21030216B2
:10160900E6BF80028050BF8103021694BF820302A5
:1016190016D6BFA10302170E021730BE01028014AD
:10162900BE03028015BE05028016BE07028017BEE2
:10163900091D80159002F30218509002F302187CDC
:101649009002F30218150219FA9002F30219544391
:10165900970843970222BE0002800ABE0602800B49
:10166900BE0811800C9002F3021A019002F3021BCA
:1016790025021EDC43970843970222BE0B069002FF
:10168900F30219AC43970843970222BE0002800A6D
:10169900BE0602800BBE0A11800C9002F3021A3AB0
:1016A9009002F3021B25021EF44397084397022276
:1016B900BE01028005BE030E80069002F30218A83F
:1016C9009002F302190643970843970222BE0006C7
:1016D9009002F3021A7D43970843970222BE09023A
:1016E900800ABE0A02800BBE0B14800C9002F30222
:1016F9001F109002F3021F6B9002F3021F8D439794
:101709000843970222BE0102800ABE02028008BE77
:10171900030E8006021F09021F7B9002F3021FC2FB
:101729004397084397022243970843970222C0210F
:10173900C0E0C0F0C082C083C007C006C005C004B5
:10174900C003C002C001C000C0D075D000AF92AEC6
:1017590093EF6056EF30E3065392F70217F6539270
:10176900EF53929FEF30E70953927F1214D2021779
:10177900F6EF30E4085392EF1215DA8070EF30E299
:10178900055392FB8067EF30E1055392FD805EEFD0
:1017990030E05A5392FE43912000000000000053AC
:1017A90091DF1214D24397018043EE6040EE30E698
:1017B900085393BF439A018034EE30E5055393DF14
:1017C900802BEE30E40B5393EF121FF04397018007
:1017D9001CEE30E2055393FB8013EE30E105539381
:1017E900FD800AEE30E0065393FE122033D0D0D0AC
:1017F90000D001D002D003D004D005D006D007D044
:1018090083D082D0F0D0E0D0210200B4AE82AF8381
:101819009002F2E4F074022EFEE43FFF8E828F8381
:10182900E0FCA3E04C60089002EC7401F0800590A4
:1018390002ECE4F08E828F83E09002EDF0539BF08E
:1018490043970243970422AE82AF839002F2E4F0F9
:101859008E828F83E0540F70138E828F83A3A3E04F
:10186900FEA3E0FFBE0105BF0002C202539BF04385
:10187900970422AE82AF839002F2E4F08E828F83C6
:10188900E0540F70138E828F83A3A3E0FEA3E0FFC1
:10189900BE0105BF0002D202539BF043970422AE5A
:1018A90082AF839002F2E4F08E828F83E0FD5305CC
:1018B9000FBD02428E828F83A3A3E0FCA3E04C708C
:1018C900358E828F83A3A3A3A3E0FEA3E0FF4E700E
:1018D900085397F75397FD801DBE8108BF00055334
:1018E90099F78012BE8208BF0005539AF780074313
:1018F900970843970222539BF043970422AE82AF85
:10190900839002F2E4F08E828F83E0FD53050FBDD0
:10191900022B8E828F83A3A3A3A3E0FEA3E0FFBEC5
:101929008108BF0005439908801ABE8208BF0005D7
:10193900439A08800F439708439702800743970803
:1019490043970222539BF043970422AE82AF8390C0
:1019590002F2E4F0E596603E8E828F83A3A3E0FE57
:10196900A3E0FF4E600A8E048F05BC0121BD001E55
:101979009002EEEEF0EE60089002EC7402F0800640
:101989009002EC7401F0539BF0439704800E439747
:10199900084397028006439708439702539BF043F5
:1019A900970422AE82AF839002F2E4F08E828F8395
:1019B900A3A3E0FCA3E04C70318E828F83A3A3A381
:1019C900A3E0FEA3E0FF4E700A539BF04397044344
:1019D900970222BE010DBF000A539BF043970443AF
:1019E9009702224397084397022243970843970295
:1019F9002243970843970222AE82AF839002F27482
:101A090002F08E828F83E0540F701F30020890110C
:101A1900087402F08005901108E4F0901109E4F0CF
:101A2900539BF0439B024397042243970843970231
:101A390022AE82AF83E0FD53050FBD01308E828F48
:101A490083A3A3A3A3E0FEA3E0FF4E6006BE011695
:101A5900BF0013901108E4F0901109F0539BF04373
:101A69009B0243970422439708439702224397080E
:101A790043970222AE82AF83E0FD53050FBD0202F8
:101A89008003021B1E8E828F83A3A3A3A3E0FEA360
:101A9900E0FFBE801BBF0018AC97530402E4A2E725
:101AA90013CC13CC901108ECF0901109E4F0805B91
:101AB900BE8127BF0024AC99530408E423CCC42376
:101AC900541F6CCC541FCC6CCC30E40244E0901110
:101AD90008ECF0901109E4F08031BE8227BF0024A0
:101AE900AE9A530608E423CEC423541F6ECE541F66
:101AF900CE6ECE30E40244E0901108EEF090110968
:101B0900E4F0800743970843970222539BF0439BD5
:101B19000243970422439708439702228582278527
:101B29008328A3A3E0FCA3E0FBBB0140904E74E42F
:101B390093FAA3E493FD8A718D727573808A828DFD
:101B490083E493F5747575009000EC75F000124309
:101B5900919002FB74ECF07400A3F0E4A3F0900000
:101B6900ECE09002FEF0E4A3F0021E99BB020280B1
:101B790003021C99904E78E493FDC3EC9D40030247
:101B89001C99904E79E493FAA3E493FDEC75F00265
:101B9900A42AF582ED35F0F583E493FAA3E493FDE5
:101BA90074092AF529E43DF52A8A718D72757380C5
:101BB9008A828D83E493F5747575009000EC75F055
:101BC90000C005C002124391D002D0058A828D83DC
:101BD900E49324ECF52BE43400F52CA829A92A85F3
:101BE9002B2D852C2E752F00880289078A828F83D9
:101BF900E493FDA3E493FE8D718E727573808D82DB
:101C09008E83E493F574757500852D82852E838501
:101C19002FF0C007C002C001C000124391D000D00C
:101C290001D002D0078A828F83E493FAA3E493FF59
:101C39008A828F83E493252BF52BE4352CF52C74BC
:101C49000228F8E439F988828983E493FEA3E493AE
:101C59004E708C9000EEE0FEA3E04E7013E52BC3AE
:101C690094ECFEE52C9400FF9000EEEEF0EFA3F06B
:101C79009002FB74ECF07400A3F0E4A3F09000EE82
:101C8900E0FEA3E0FF9002FEEEF0EFA3F0021E9942
:101C9900E4BB030104FF603AEC703775716A757231
:101CA9004E757380904E6AE493F5747575009000D3
:101CB900EC75F0001243919002FB74ECF07400A3F0
:101CC900F0E4A3F09000ECE09002FEF0E4A3F0024F
:101CD9001E99EF7003021D8D7F00EC24FFFDEF3488
:101CE900FFFE904E7BE493F97A00C3ED99EE648090
:101CF9008AF063F08095F04003021D8D904E7CE4DC
:101D090093FDA3E493FE1CBCFF011FEC2CFCEF33F5
:101D1900FFEC2DF582EF3EF583E493FEA3E493FFF8
:101D29009000EC7402F09000ED04F0740124EDFCD5
:101D3900E43400FD8E828F83E493FA602C0EBE009A
:101D4900010F8C828D83EAF074012CF9E43DFA8944
:101D5900828A83E4F00429FCE43AFD9000ECE0FA7D
:101D69000A0A9000ECEAF080CB9002FB74ECF07464
:101D790000A3F0E4A3F09000ECE09002FEF0E4A3ED
:101D8900F0021E99BB2276852782852883A3A3A307
:101D9900A3E0FE702F9002FE7444F0E4A3F0757185
:101DA9003C75724D757380757444F5759000ECF54A
:101DB900F01243919002FB74ECF07400A3F0E4A3D9
:101DC900F0021E99BE012F9002FE748DF0E4A3F07B
:101DD90075718075724D75738075748DF575900088
:101DE900ECF5F01243919002FB74ECF07400A3F04F
:101DF900E4A3F0021E9943970843970222BB2102EC
:101E09008003021E92852782852883A3A3A3A3E0CA
:101E1900FE703675712875724E757380904E28E480
:101E290093F5747575009000EC75F000124391906C
:101E390002FB74ECF07400A3F0E4A3F09000ECE072
:101E49009002FEF0E4A3F08047BE0136757141753A
:101E5900724E757380904E41E493F57475750090D8
:101E690000EC75F0001243919002FB74ECF07400E1
:101E7900A3F0E4A3F09000ECE09002FEF0E4A3F0FC
:101E8900800E4397084397022243970843970222FB
:101E9900852782852883A3A3A3A3A3A3E0FEA3E0A8
:101EA900FF9002FEE0FCA3E0FDC3EE9CEF9D400421
:101EB9008C068D079002FBE0FBA3E0FCA3E0FD8EFE
:101EC900718F728B828C838DF012205C12206C438F
:101ED9009704229002F27402F09002EEE090110849
:101EE900F0539BF0439B01439704229002F2740242
:101EF900F0901108E4F0539BF0439B0143970422AF
:101F090043970843970222AE82AF83A3A3E0FCA3C1
:101F1900E0FABA02028005BA0341802D8E828F83CE
:101F2900A3A3A3A3E0FAA3E04A703674062EF582B0
:101F3900E43FF583E0FEA3E0FFBE0125BF00229048
:101F490002F27404F0439701227D00BC0513BD0021
:101F5900109002F27405F0439701224397084397C2
:101F69000222A3A3E0A3E09002F1F0539BF0439770
:101F790004229002F1E0901108F0539BF0439B0179
:101F890043970422AE82AF83A3A3A3A3E0FCA3E0FB
:101F9900FD4C700D8E828F83A3A3E09002EFF08039
:101FA90011BC010EBD000B8E828F83A3A3E09002AA
:101FB900F0F0539BF043970422A3A3A3A3E0FEA34D
:101FC900E0FF4E700A9002EFE0901108F0800EBE1B
:101FD900010BBF00089002F0E0901108F0539BF04C
:101FE900439B01439704229002F2E0FFBF0414903F
:101FF90002F2E4F0901100E0900061F0539BF0438D
:10200900970422BF05189002F2E4F0901100E0FF56
:10201900BF0516901101E0FFBF750E021340900233
:10202900F2E4F0539BF0439704229002F2E0FFBFE1
:10203900010A12206C43970443970122BF02074308
:102049009701439708224397084397019002EDE0CF
:10205900F5962285822485832585F026857122853A
:10206900722322E5224523700D9002F27402F05387
:102079009BF0859B9B22AE22AF23C374089EE49FED
:1020890050379002F27401F0753008852482852555
:10209900838526F0122109AC22AD23EC24F8FCED4E
:1020A90034FFFD8C228D2374082524F524E435257D
:1020B900F525539BF0439B0822BE0824BF002190BD
:1020C90002F27401F07530088524828525838526FE
:1020D900F0122109E4F522F523539BF0439B0822D2
:1020E9009002F27402F08522308524828525838549
:1020F90026F0122109539BF0AF9BE5224FF59B2255
:10210900AD82AE83AFF0E53024F75001228D718E98
:10211900728F7385307475750090110875F000021F
:102129004391AD82AE83AFF075710075721175730D
:10213900007574087575008D828E838FF002439146
:10214900AD82AE83AFF0E53124EF5001228D718E5F
:10215900728F7385317475750090112075F00002C6
:102169004391AD82AE83AFF07571107572117573BD
:10217900007574107575008D828E838FF0024391FE
:10218900AD82AE83AFF0E53224BF5001228D718E4E
:10219900728F7385327475750090118075F0000225
:1021A9004391AD82AE83AFF075714075721175734D
:1021B900007574407575008D828E838FF00243918E
:104D3C0005010906A101050719E029E71500250160
:104D4C007501950881027508950181010507190007
:104D5C0029FF150026FF0075089506810005081926
:104D6C00012905150025017501950591027503951D
:104D7C00019101C005010980A101850119812983D7
:104D8C001500250175019503810295058101C0056A
:104D9C000C0901A101850219002A3C021500263CD0
:104DAC0002751095018100C00600FF0901A1018563
:104DBC000519012902150026FF0075089505B10299
:104DCC00C00631FF0974A10185070975150026FF7E
:104DDC0000750895208102C005010906A101850610
:104DEC00050719E029E715002501750195088102D1
:104DFC0005071900299F15002501750195A0810251
:104E0C00C01201100100000008AC054F02000001A7
:104E1C000203010904000001030101000921110131
:104E2C000001224400070581031000010904010060
:104E3C000103000000092111010001228D0007056A
:104E4C00820340000109020000020100A0FA1F4E7B
:104E5C00284E314E384E414E4A4E0000514E0403FE
:104E6C0009047E4E954EA24E0D4E000001684E0375
:104E7C006E4E636F6E74616374406361726C6F73BA
:104E8C00736C6573732E696F00534D4B204B6579B2
:0B4E9C00626F61726400303030310042
:09013D00900300E4F0900301F0CE
:1021C900AF810F8F0177AABFFFF8227FFFEF247A33
:1021D900500A8F018706BEAA031F80F1EF247BF501
:1021E9008222900301E02401F0E06001221221D44F
:1021F900AF82900300E0C39F5027900300EFF07E69
:1022090000747AC0E0E4C0E0C007C00674A7C0E06B
:10221900744EC0E07480C0E0124502E58124F9F5EE
:02222900812210
:104EA700535441434B207065616B3A2025642F258D
:044EB700640D0A007C
:10222B0085821B85831C85F01DC2AFC28590000380
:10223B001210B4C2FC7B007C00C3EB9519EC6480DC
:10224B00851AF063F08095F0503FEB251BF8EC35C9
:10225B001CF9AA1D888289838AF0124C6CF582C006
:10226B0004C003C002C001C00012229DAF82D00087
:10227B00D001D002D003D004888289838AF0EF1278
:10228B0044050BBB00B30C80B0D2FCD287D285D2F5
:10229B00AF22AF827E007D00BD08005029EE2EFEDE
:1022AB00C2B70000000000000000EF30E704D28747
:1022BB008002C287308603430601D2B700000000BC
:0922CB00EF2FFF0D80D28E82225C
:0C0146007533E075344E7535EA75364EA1
:1022D400AF82BFA502800ABFA6028009BFA70E80F5
:1022E4000890000122900002229000042290000035
:1022F40022AF82BFA80050030223BAEF243D50034B
:102304000223BAEF2458FF240A83F582EF241F83A3
:10231400F583E4734E52565A5E6A72766E7A7E8202
:102324008E92969A9EA2AE6266A6AA868AB2B623B8
:102334002323232323232323232323232323232369
:10234400232323232323232323239000E222900007
:10235400E9229000EA229000B5229000B622900073
:10236400B3229000B4229000B7229000CC229000B7
:10237400CD229001832290018A2290019222900121
:10238400942290019F229001CB229002212290025C
:1023940023229002242290022522900226229002D7
:1023A400272290006F229000702290022A2290022D
:1023B4009F229002A02290000022122C7E90000600
:1023C4001210DB90032275F0001226F79000C81259
:1023D40010B485333D85343E753F80758200122BE1
:1023E4007B90000C1210DB122A539000201210DB99
:1023F40085353D85363E753F80758201122B7B9075
:10240400000C1210DB122A5390001E1210DB7538D8
:10241400007582001227919000141210DB753800A9
:1024240075820012279190000F1210DBE4F53BF542
:102434003C900000122A8A90001E1210DB0226AA89
:10244400AE82AF83E0900324F08E828F83A3A3E057
:10245400900325F08E828F83A3A3A3E0900326F03C
:102464008E828F83A3A3A3A3E0900327F08E828F91
:1024740083A3A3A3A3A3E0900328F074062EF582FC
:10248400E43FF583E0900329F07537017F00BF0630
:10249400005015EF2424FDE43403FE8D828E83E086
:1024A40060037537000F80E6E5376061900325E42B
:1024B400F0900324F5F01227D59003257401F090D1
:1024C400032475F0001227D5900325E4F09003242B
:1024D400F5F01227D59003257401F090032475F0CC
:1024E400001227D5900325E4F0900324F5F0122779
:1024F400D59003257401F090032475F0001227D5BC
:10250400900325E4F0900324F5F00227D5900324EA
:1025140075F0000227D5AE82AF8390032A7401F0D0
:10252400FDBD15005015ED2EFBE43FFC8B828C8322
:10253400E0600590032AE4F00D80E690032AE0FDB4
:10254400FB3395E0FCC007C006C005C003C004749B
:10255400BBC0E0744EC0E07480C0E0124502E58167
:1025640024FBF581D005D006D007ED70030225D5F4
:10257400900325E4F0900324F5F01227D590032569
:102584007401F090032475F0001227D5900325E41C
:10259400F0900324F5F01227D59003257401F090F0
:1025A400032475F0001227D5900325E4F09003244A
:1025B400F5F01227D59003257401F090032475F0EB
:1025C400001227D5900325E4F0900324F5F00227A8
:1025D400D58E828F83A3E0FD74022EF539E43FF596
:1025E4003A8D820228A6AE82AF83E0FDBD0102804F
:1025F40005BD022A80128E828F83A3E0F53BA3E0FF
:10260400F53C900000022A8A8E828F83A3E0FEA309
:10261400E0FFE4F53BF53C8E828F83022A8A22ADEB
:1026240082AE83AFF090032B75F000C007C006C0E4
:10263400051226F7D005D006D0078D028E038F042D
:1026440090032CE0F95301078A828B838CF0E91202
:1026540044050DBD00010E8D828E838FF0124C6CEB
:10266400FC90032CE05460C4035407FB8D828E83DA
:102674008FF0124405ECB50301228D828E838FF016
:10268400124C6CFD7F00C005C00774CAC0E0744ED4
:10269400C0E07480C0E0124502E58124FBF581228C
:1026A40075380002279190030274AAF09003037412
:1026B4001DF09003047402F07F03BF1F00500FEF5E
:1026C4002402F582E43403F583E4F00F80EC7571A1
:1026D4001F75720090030275F000122CBCAF82903B
:1026E4000321EFF0751920751A0090030275F000AC
:1026F40002222BAD82AE83AFF0C007C006C0051224
:102704002C029000641210B4122770D005D006D0A9
:1027140007900302E0FCBCBB0280047582002275B2
:10272400710275720090030475F000C007C006C002
:1027340005122CBCAC82D005D006D007900303E070
:10274400B50402800475820022900304E08D828E19
:10275400838FF01244050DBD00010E900305E08D3A
:10276400828E838FF01244057582012290030274D5
:10277400FFF0900303F0900304F0900305F0751943
:1027840004751A0090030275F00002222BAF8290A8
:10279400030274AAF09003037403F0900304740119
:1027A400F0900305E538F0900306EFF075710575B8
:1027B400720090030275F000122CBCAF82900307E4
:1027C400EFF0751906751A0090030275F0000222E5
:1027D4002BAD82AE83AFF090030274AAF090030392
:1027E400741DF09003047402F08D828E838FF012B6
:1027F4004C6C900305F074012DFAE43EFB8F048ABF
:10280400828B838CF0124C6C900306F074022DFAC8
:10281400E43EFB8F048A828B838CF0124C6C900311
:1028240007F074032DFAE43EFB8F048A828B838CB9
:10283400F0124C6C900308F074042DFAE43EFB8F04
:10284400048A828B838CF0124C6C900309F074051B
:102854002DFDE43EFE8D828E838FF0124C6C90032E
:102864000AF090030BE4F07F0ABF1F00500FEF241F
:1028740002F582E43403F583E4F00F80EC75711FF4
:1028840075720090030275F000122CBCAF829003A5
:1028940021EFF0751920751A0090030275F00002FB
:1028A400222BE58290032DF090030274AAF090038A
:1028B40003741DF09003047402F090032DE0900360
:1028C40005F0900306E4F0900307F0900308F090FD
:1028D4000309F090030AF090030BF0AE39AF3A8E7F
:1028E400828F83E090030CF08E828F83A3E09003A9
:1028F4000DF08E828F83A3A3E090030EF08E828F5F
:1029040083A3A3A3E090030FF08E828F83A3A3A3DA
:10291400A3E0900310F08E828F83A3A3A3A3A3E06C
:10292400900311F074062EF582E43FF583E09003E2
:1029340012F074072EF582E43FF583E0900313F060
:1029440074082EF582E43FF583E0900314F07409D3
:102954002EF582E43FF583E0900315F0740A2EF51A
:1029640082E43FF583E0900316F0740B2EF582E4C5
:102974003FF583E0900317F0740C2EF582E43FF5E5
:1029840083E0900318F0740D2EF582E43FF583E0A4
:10299400900319F0740E2EF582E43FF583E0900362
:1029A4001AF0740F2EF582E43FF583E090031BF0D8
:1029B40074102EF582E43FF583E090031CF074114B
:1029C4002EF582E43FF583E090031DF074122EF59A
:1029D40082E43FF583E090031EF074132EF582E445
:1029E4003FF583E090031FF0900320E4F075711F1E
:1029F400F572900302F5F0122CBCAF82900321EF24
:102A0400F0751920751A0090030275F00002222B4C
:102A1400AF8290030274AAF09003037403F090034E
:102A240004F0900305EFF0900306E4F0757105F5EA
:102A340072900302F5F0122CBCAF82900307EFF002
:102A4400751906751A0090030275F00002222B9086
:102A5400030274AAF09003037401F0900304740455
:102A6400F075710375720090030275F000122CBCAE
:102A7400AF82900305EFF0751904751A00900302F4
:102A840075F00002222BAE82AF8390030274AAF089
:102A9400900303740BF09003047405F0900305E4B1
:102AA400F0900306F0900307F0900308F0900309F8
:102AB400F090030AF08E0590030BEDF08F0690035F
:102AC4000CEEF0AF3B90030DEFF0AF3C90030EEF34
:102AD400F075710D75720090030275F000122CBC34
:102AE400AF8290030FEFF075190E751A0090030270
:102AF40075F00002222BAF8290030274AAF09003B7
:102B0400037403F090030423F0900305EFF09003A3
:102B140006E4F0757105F572900302F5F0122CBC11
:102B2400AF82900307EFF0751906751A009003023F
:102B340075F00002222BAF8290030274AAF0900376
:102B4400037403F09003047407F0900305EFF0900E
:102B54000306E4F0757105F572900302F5F0122C8A
:102B6400BCAF82900307EFF0751906751A00900345
:102B74000275F00002222BAF8290030274AAF09037
:102B84000303741DF09003047408F0900305EFF040
:102B9400AD3DAE3EAF3F7B047C008D828E838FF0D3
:102BA400124C6CFA6011900306EAF00DBD00010EA0
:102BB4000BBB00E60C80E38B068C07C3EE941FEF7F
:102BC400648094805013EE2402F582EF3403F5837D
:102BD400E4F00EBE00E50F80E275711F757200907F
:102BE400030275F000122CBCAF82900321EFF07544
:102BF4001920751A0090030275F00002222B90032D
:102C04000274AAF09003037403F0900304740AF0AE
:102C1400900305E4F0900306F0757105F5729003D6
:102C240002F5F0122CBCAF82900307EFF075190681
:102C3400751A0090030275F00002222B90030274AF
:102C4400AAF09003037403F0900304740BF0900350
:102C540005E4F0900306F0757105F572900302F532
:102C6400F0122CBCAF82900307EFF0751906751AA9
:102C74000090030275F00002222B90030274AAF064
:102C84009003037403F0900304740CF0900305E4C0
:102C9400F0900306F0757105F572900302F5F012D9
:102CA4002CBCAF82900307EFF0751906751A0090DB
:102CB400030275F00002222B85827385837485F0EC
:102CC400757C007A007B00C3EA9571EB64808572A1
:102CD400F063F08095F0501CEA2573F8EB3574F935
:102CE400AF75888289838FF0124C6C2CFC0ABA0071
:0B2CF400D60B80D37455C39CF58222E0
:104EBB00697320626C616E6B3A2025640D0A007277
:104ECB0066206C696E6B206368616E6765643A205F
:104EDB0025640D0A00534D4B204254352E300053A0
:094EEB004D4B204254332E3000DF
:102CFF00AF8243902043983F43A03F438807EF2480
:102D0F00F0500122EF2F902D1973801E801F80200D
:102D1F008021802280238024802580268027802880
:102D2F008029802A802B802C802DC28822C2892264
:102D3F00C28A22C2A522C2A422C2A322C2A222C236
:102D4F00A122C2A022C29D22C29C22C29B22C29A51
:102D5F0022C29922C29822C29522E5F8C313FF53CB
:102D6F000707E58854184F44E0F582225390DF534C
:102D7F0098C053A0C05388F822122D92122DDE4313
:102D8F00A90222758C0575A500758C4575A6007571
:102D9F008C8575BB00758CC5758D00758C0075E1C4
:102DAF001C75E22E75E33F75E43F75E57875E68790
:102DBF0075E7FE75EE7875D90E43F81043B0804372
:102DCF0080A043D11043E58043E1A043E940229026
:102DDF00FF9C7404F090FF98E4F090FF9D7404F052
:102DEF0090FF99E4F090FF9E7404F090FF9AE4F046
:102DFF0075DE04F5DD75D504F5D2F5C3F5CE75D6C0
:102E0F0004F5D3F5C4F5C175D704F5D4F5C5F5C2EE
:102E1F0090FFBD7404F090FFA5E4F090FFEDF090EB
:102E2F00FFD5F090FFBC7404F090FFA4E4F090FF86
:102E3F00ECF090FFD4F090FFBB7404F090FFA3E48C
:102E4F00F090FFEBF090FFD3F090FFBA7404F09086
:102E5F00FFA2E4F090FFEAF090FFD2F090FFB97478
:102E6F0004F090FFA1E4F090FFE9F090FFD1F09013
:102E7F00FFB87404F090FFA0E4F090FFE8F090FF2B
:102E8F00D0F090FFC37404F090FFABE4F090FFF329
:102E9F00F090FFDBF090FFC27404F090FFAAE4F013
:102EAF0090FFF2F090FFDAF090FFC17404F090FF02
:102EBF00A9E4F090FFF1F090FFD9F090FFC07404F7
:102ECF00F090FFA8E4F090FFF0F090FFD8F090FFA3
:102EDF00BF7404F090FFA7E4F090FFEFF090FFD7DE
:102EEF00F090FFBE7404F090FFA6E4F090FFEEF0B8
:102EFF0090FFD6F090FFC97404F090FFB1E4F0900A
:082F0F00FFF9F090FFE1F02250
:05015200E4F542F54355
:102F1700AF82BFA502800ABFA6028009BFA70E80A5
:102F270008900001229000022290000422900000E5
:102F370022AF82BFA8005003022FFDEF243D5003AC
:102F4700022FFDEF2458FF240A83F582EF241F8305
:102F5700F583E4739195999DA1ADB5B9B1BDC1C58F
:102F6700D1D5D9DDE1E5F1A5A9E9EDC9CDF5F92F70
:102F77002F2F2F2F2F2F2F2F2F2F2F2F2F2F2F2F5A
:102F87002F2F2F2F2F2F2F2F2F2F9000E222900040
:102F9700E9229000EA229000B5229000B622900024
:102FA700B3229000B4229000B7229000CC22900068
:102FB700CD229001832290018A22900192229001D2
:102FC700942290019F229001CB229002212290020D
:102FD7002322900224229002252290022622900288
:102FE700272290006F229000702290022A229002DE
:102FF7009F229002A02290000022A28DE43390032A
:103007002EF0A28EE43390032FF02290032EE0FFE0
:10301700A28DE433FEEFB50602803EA28DE4339025
:10302700032EF090032EE0FF601ABF012C74F4C04A
:10303700E0744EC0E07480C0E0124502158115812E
:103047001581801574FFC0E0744EC0E07480C0E045
:1030570012450215811581158190032FE0FFA28E7D
:10306700E433FEEFB5060122A28EE43390032FF07E
:1030770090032FE0FF6019BF012B7409C0E0744F64
:10308700C0E07480C0E012450215811581158122C8
:103097007414C0E0744FC0E07480C0E0124502159C
:1030A700811581158122AE82AF83BE4005BF7E02A6
:1030B7008024BE4105BF7E028010BE4205BF7E024E
:1030C700800CBE4311BF7E0E800875820122758277
:1030D70002227582032275820022AE82AF8390039B
:1030E70032E06016E54060128E048F05BC4D05BDC9
:1030F7007E0280069003337401F0C3EE9440EF9490
:103107007E50030232BAC3744D9E747E9F500302F1
:1031170032BA8E048F05EC24C0FC2C2C9031277317
:103127000232A60232A60232A60232A602322202D8
:10313700323802324E02326402327A02329002315F
:10314700FD023207023211E540602C900332740110
:10315700F090002575F000120B1FE582700B120E20
:1031670092E5827004F5418003754101900333E5D0
:1031770041F0750A03805E90002575F000120E4736
:10318700750A00900332E4F0900333E07047900330
:103197002FE0602F758201120E9675122C90002574
:1031A70075F000120DD7120A6975132C900025755A
:1031B700F000120E0F120A69758201120E9B120A95
:1031C700698012758240120E96120A697582401242
:1031D7000E9B120A69AC0A7D00C004C005741FC0AB
:1031E700E0744FC0E07480C0E0124502E58124FB23
:1031F700F58175820022900330E540F07582002248
:10320700900331E540F075820022E54060099003A4
:1032170031E0600312344E75820022E540600E9063
:103227000330E0600512355D80031234CE758200ED
:1032370022E540600E900330E0600512357580038B
:103247001234E675820022E540600E900330E0609C
:103257000512358D800312350275820022E5406024
:103267000E900330E060051235A8800312351D75F6
:10327700820022E540600E900330E060051235C3FE
:10328700800312353875820022E540600E900330C6
:10329700E060051235D6800312354B758200229007
:1032A700032EE0700A8E828F831230AD1226A4752A
:1032B70082002275820122AE82AF8390032EE0FD49
:1032C700600ABD010E8E828F8302150B8E828F835B
:1032D70002244422AE82AF8390032EE0FD600ABD34
:1032E700010E8E828F830215488E828F8302251AE4
:1032F70022AE82AF8390032EE0FD600ABD010E8EE1
:10330700828F830215858E828F830225EA2290039E
:103317002EE0701FAE42AF43C374209E744E9F5081
:1033270012C2AF90006175F000122623E4F542F552
:0C33370043D2AF0542E4B5420205432238
:104EF4005553425F4D4F44450D0A0052465F4D4F96
:104F040044450D0A004D41435F4D4F44450D0A0091
:104F140057494E5F4D4F44450D0A004348414E47A3
:0F4F24004544204C415945523A2025640D0A005E
:10334300AF82BFA502800ABFA6028009BFA70E8075
:1033530008900001229000022290000422900000B5
:1033630022AF82BFA8005003023429EF243D50034B
:10337300023429EF2458FF240A83F582EF241F83A4
:10338300F583E473BDC1C5C9CDD9E1E5DDE9EDF14F
:10339300FD0105090D111DD1D51519F5F9212533A8
:1033A30033333333333333333333333334343434E6
:1033B300343433333434333334349000E2229000E2
:1033C300E9229000EA229000B5229000B6229000F4
:1033D300B3229000B4229000B7229000CC22900038
:1033E300CD229001832290018A22900192229001A2
:1033F300942290019F229001CB22900221229002DD
:103403002322900224229002252290022622900257
:10341300272290006F229000702290022A229002AD
:103423009F229002A022900000229000E6E4F090F8
:1034330000E714F09000E87404F09000E9E4F090E1
:1034430000EA14F09000EB7401F02212342D021004
:1034530094900454E4F0900455F0900456F09004D2
:1034630057F0900458F0900459F012342D12108B39
:103473009000E6E024FB50069000E67404F0900010
:10348300E8E0FFBF010050069000E87401F09000EF
:10349300E8E024EF50069000E87410F09000E9E0B3
:1034A30024FB50069000E97404F09000EBE0FFBFAA
:1034B300010050069000EB7401F09000EBE024EF64
:1034C30050069000EB7410F00241A89000E6E0FF74
:1034D3000F9000E6EFF0EF24FB50059000E6E4F0D8
:1034E3000210949000E6E070089000E67404F08007
:1034F3000B9000E6E0FF1F9000E6EFF002109490BF
:1035030000E7E0FF242050089000E774FFF08007F5
:1035130074202F9000E7F00210949000E7E0FFBFC3
:10352300200050079000E7E4F08007EF24E09000CC
:10353300E7F00210949000E8E0FFBF100050060F80
:103543009000E8EFF00210949000E8E0FF24FE50B2
:10355300061F9000E8EFF00210949000E9E0FF0FDF
:103563009000E9EFF0EF24FB50059000E9E4F0024E
:1035730010949000E9E0FF70089000E97404F08073
:10358300061F9000E9EFF00210949000EAE0FF2498
:103593002050089000EA74FFF0800774202F9000F9
:1035A300EAF00210949000EAE0FFBF200050079079
:1035B30000EAE4F08007EF24E09000EAF0021094C0
:1035C3009000EBE0FFBF100050060F9000EBEFF010
:1035D3000210949000EBE0FF24FE50061F9000EBD6
:1035E300EFF00210945380E35390F153B087538864
:1035F3007F53C0010241F4123654900454E0FFBFDC
:10360300050050129000E6E0FFBF0400500E123D8B
:10361300BA123E4E8006123DBA123E4E900455E059
:103623002401F0E0FFBF03004018900455E4F0903C
:103633000454E02401F0E0FFBF0600400590045469
:10364300E4F07582002290FF80E053E0DFF0024156
:10365300A8900458E0FFBF050040030239779000AB
:10366300E6E0FEBE0374EF75F030A42434FC74036B
:1036730035F0FD900459E02CFCE43DFD9000E7E0BB
:103683008C828D83F0900458E075F030A42434FCD0
:10369300740335F0FD74102CFCE43DFD900459E0F7
:1036A3002CFCE43DFD9000E7E08C828D83F09004D8
:1036B30058E075F030A42434FC740335F0FD742015
:1036C3002CFCE43DFD900459E02CFCE43DFD90000E
:1036D300E7E08C828D83F0023D79BE040040030253
:1036E3003D79BE00028029BE01028005BE02218011
:1036F30011900459E0904F8393FE900456E02EFE00
:103703008031EF904F9393FD900456E02DFE80237C
:10371300EF75F010A42433FC744F35F0FD90045979
:10372300E02CFCE43DFD900456E0FB8C828D83E4A9
:10373300932BFEBE550040030237F7EF75F030A41C
:103743002434FC740335F0FD900459E02CFCE43D73
:10375300FD8E03EB75F003A4D394FFF4FB7A009082
:1037630000E7E0F5718A728B828A83C006C005C0C8
:1037730004124420AB83D004D005D0068B028C8284
:103783008D83EAF0900458E075F030A42434FC747F
:103793000335F0FD74102CFCE43DFD900459E02C3E
:1037A300F582E43DF583E4F0900458E075F030A42D
:1037B3002434FC740335F0FD74202CFCE43DFD90AF
:1037C3000459E02CFCE43DFDEE75F003A4FB7A0004
:1037D3009000E7E0F5718A728B828A83C005C0048A
:1037E300124420AB83D004D0058B028C828D83EAF4
:1037F300F0023D79BEAA0040030238BC8E05ED24D9
:10380300ABFDEF75F030A42434FB740335F0FC906A
:103813000459E02BF582E43CF583E4F0900458E08E
:1038230075F030A42434FB740335F0FC74102BFBC7
:10383300E43CFC900459E02BFBE43CFCED75F00305
:10384300A4F97A009000E7E0F5718A7289828A838D
:10385300C005C004C003124420AA83D003D004D0FF
:10386300058A018B828C83E9F0900458E075F0306F
:10387300A42434FB740335F0FC74202BFBE43CFCE0
:10388300900459E02BFBE43CFCED75F003A4D394C6
:10389300FFF4FD7A009000E7E0F5718A728D828A69
:1038A30083C004C003124420AD83D003D0048D022F
:1038B3008B828C83EAF0023D79EE2456FEEF75F09D
:1038C30030A42434FD740335F0FF900459E02DFD3A
:1038D300E43FFFEE75F003A4FC7B009000E7E0F506
:1038E300718B728C828B83C007C006C00512442083
:1038F300AC83D005D006D0078C038D828F83EBF089
:10390300900458E075F030A42434FD740335F0FFBF
:1039130074102DFDE43FFF900459E02DFDE43FFFBB
:10392300EE75F003A4D394FFF4FE7C009000E7E06F
:10393300F5718C728E828C83C007C005124420AE51
:1039430083D005D0078E048D828F83ECF0900458CA
:10395300E075F030A42434FE740335F0FF74202E98
:10396300FEE43FFF900459E02EF582E43FF583E443
:10397300F0023D799000E9E0FFBF033F900459E076
:103983002424FEE43404FD9000EAE08E828D83F06B
:10399300900459E02434FEE43404FD9000EAE08E00
:1039A300828D83F0900459E02444FEE43404FD90B6
:1039B30000EAE08E828D83F0023BDEBF0400400309
:1039C300023BB1BF00028022BF01028005BF021A81
:1039D3008011900459E0904F8393FF900457E02F98
:1039E300FF802A900457E0FF8023900459E0FEBE35
:1039F300080050098E057407C39DFD8004EE24F86A
:103A0300FDED75F024A4FD900457E02DFFBF550094
:103A13004003023A9C900459E02424FEE43404FD5C
:103A23008F04EC75F003A4D394FFF4FC7B009000A7
:103A3300EAE0F5718B728C828B83C007C006C005E8
:103A4300124420AC83D005D006D0078C038E828D20
:103A530083EBF0900459E02434F582E43404F583D5
:103A6300E4F0900459E02444FEE43404FDEF75F0DF
:103A730003A4FC7B009000EAE0F5718B728C828BCF
:103A830083C006C005124420AC83D005D0068C0346
:103A93008E828D83EBF0023BDEBFAA004003023B24
:103AA3002C8F06EE24ABFE900459E02424F582E427
:103AB3003404F583E4F0900459E02434FDE4340441
:103AC300FCEE75F003A4FB7A009000EAE0F5718A3E
:103AD300728B828A83C006C005C004124420AB8364
:103AE300D004D005D0068B028D828C83EAF090043B
:103AF30059E02444FDE43404FCEE75F003A4D394AC
:103B0300FFF4FE7B009000EAE0F5718B728E828BEE
:103B130083C005C004124420AE83D004D0058E03B5
:103B23008D828C83EBF0023BDEEF2456FF90045929
:103B3300E02424FEE43404FDEF75F003A4FC7B00D1
:103B43009000EAE0F5718B728C828B83C007C0060C
:103B5300C005124420AC83D005D006D0078C038E59
:103B6300828D83EBF0900459E02434FEE43404FDA9
:103B7300EF75F003A4D394FFF4FF7C009000EAE018
:103B8300F5718C728F828C83C006C005124420AFFE
:103B930083D005D0068F048E828D83ECF090045978
:103BA300E02444F582E43404F583E4F0802D9004AA
:103BB30059E02424F582E43404F583E4F0900459B5
:103BC300E02434F582E43404F583E4F0900459E00E
:103BD3002444F582E43404F583E4F0900459E0FFCF
:103BE300BF08004003023D79900061E020E1030239
:103BF3003C79EF2424FDE43404FE9000EAE0F571FF
:103C0300757200900032C006C005124420AC83D008
:103C130005D0068C038D828E83EBF0900459E0244B
:103C230034FEE43404FD9000EAE0F571757200900F
:103C33000078C006C005124420AC83D005D0068CA2
:103C4300038E828D83EBF0900459E02444FEE43428
:103C530004FD9000EAE0F571757200900032C00631
:103C6300C005124420AC83D005D0068C038E828D10
:103C730083EBF0023D79308D67EF2424FDE43404B7
:103C8300FE9000EAE0F5717572009000FFC006C077
:103C930005124420AC83D005D0068C038D828E831D
:103CA300EBF0900459E02434FEE43404FD9000EA80
:103CB300E0F5717572009000B4C006C0051244208F
:103CC300AC83D005D0068C038E828D83EBF09004F9
:103CD30059E02444F582E43404F583E4F0023D79A9
:103CE300900062E07049EF2424F582E43404F58304
:103CF300E4F0900459E02434FEE43404FD9000EA37
:103D0300E0F5717572009000FFC006C005124420F3
:103D1300AC83D005D0068C038E828D83EBF09004A8
:103D230059E02444F582E43404F583E4F08047EF5A
:103D33002424F582E43404F583E4F0900459E02468
:103D430034F582E43404F583E4F0900459E0244428
:103D5300FFE43404FE9000EAE0F571757200900010
:103D6300FFC007C006124420AD83D006D0078D04E0
:103D73008F828E83ECF0900459E02401F0E0FFBFC2
:103D830010004032900459E4F0900458E02401F00C
:103D9300E0FFBF050C9000E8E0FE900456E02EF033
:103DA30022BF060040109000EBE0FF900457E02F85
:103DB300F0900458E4F022900454E0FF24FA5001F8
:103DC30022EF2F903DCA73800A801C802E80408092
:103DD300528064900455E0FFE07003D28422BF0157
:103DE30003D2C122D28322900455E0FFE07003D2B4
:103DF300C722BF0103D2C222D2C622900455E0FFDC
:103E0300E07003D28222BF0103D2C322D28F229059
:103E13000455E0FFE07003D2B522BF0103D2C422F0
:103E2300D2B622900455E0FFE07003D2B422BF0162
:103E330003D2C522D2B322900455E0FFE07003D22F
:103E43009122BF0103D29222D29322900454E0FF25
:103E5300BF0512900455E075F010A42424FD7404EA
:103E630035F0FE8019EF75F030A42434FC7403356B
:103E7300F0FF900455E0C454F02CFDE43FFE8D8226
:103E83008E83E0FFFB7C002BFBEC33FCEB2BFBEC8A
:103E930033FCE4C39B74049CF5C3EF2F25E0FFC3FD
:103EA300E49FF5CE8D828E83A3E0FFFB7C002BFB8A
:103EB300EC33FCEB2BFBEC33FCE4C39B74049CF56D
:103EC300C4EF2F25E0FFC3E49FF5C18D828E83A34A
:103ED300A3E0FFFB7C002BFBEC33FCEB2BFBEC3375
:103EE300FCE4C39B74049CF5C5EF2F25E0FFC3E4FA
:103EF3009FF5C274032DFCE43EFF8C828F83E07A2E
:103F03000025E0FBEA33FAEB2BFBEA33FAE4C39B2D
:103F130074049A90FFEDF08C828F83E025E025E016
:103F2300FC90FFD5C3E49CF074042DFCE43EFF8CAD
:103F3300828F83E07A0025E0FBEA33FAEB2BFBEA7E
:103F430033FAE4C39B74049A90FFECF08C828F8362
:103F5300E025E025E0FC90FFD4C3E49CF074052D3C
:103F6300FCE43EFF8C828F83E07A0025E0FBEA339A
:103F7300FAEB2BFBEA33FAE4C39B74049A90FFEB4E
:103F8300F08C828F83E025E025E0FC90FFD3C3E42F
:103F93009CF074062DFCE43EFF8C828F83E07A0054
:103FA30025E0FBEA33FAEB2BFBEA33FAE4C39B7419
:103FB300049A90FFEAF08C828F83E025E025E0FCF1
:103FC30090FFD2C3E49CF074072DFCE43EFF8C8287
:103FD3008F83E07A0025E0FBEA33FAEB2BFBEA332D
:103FE300FAE4C39B74049A90FFE9F08C828F83E018
:103FF30025E025E0FC90FFD1C3E49CF074082DFC80
:10400300E43EFF8C828F83E07A0025E0FBEA33FAFB
:10401300EB2BFBEA33FAE4C39B74049A90FFE8F0BA
:104023008C828F83E025E025E0FC90FFD0C3E49CE5
:10403300F074092DFCE43EFF8C828F83E07A002527
:10404300E0FBEA33FAEB2BFBEA33FAE4C39B740499
:104053009A90FFF3F08C828F83E025E025E0FC90BB
:10406300FFDBC3E49CF0740A2DFCE43EFF8C828FDB
:1040730083E07A0025E0FBEA33FAEB2BFBEA33FA21
:10408300E4C39B74049A90FFF2F08C828F83E02543
:10409300E025E0FC90FFDAC3E49CF0740B2DFCE414
:1040A3003EFF8C828F83E07A0025E0FBEA33FAEB54
:1040B3002BFBEA33FAE4C39B74049A90FFF1F08C70
:1040C300828F83E025E025E0FC90FFD9C3E49CF0D8
:1040D300740C2DFCE43EFF8C828F83E07A0025E094
:1040E300FBEA33FAEB2BFBEA33FAE4C39B74049A3F
:1040F30090FFF0F08C828F83E025E025E0FC90FFB9
:10410300D8C3E49CF0740D2DFCE43EFF8C828F83B6
:10411300E07A0025E0FBEA33FAEB2BFBEA33FAE41F
:10412300C39B74049A90FFEFF08C828F83E025E0A9
:1041330025E0FC90FFD7C3E49CF0740E2DFCE43E15
:10414300FF8C828F83E07A0025E0FBEA33FAEB2BC6
:10415300FBEA33FAE4C39B74049A90FFEEF08C827B
:104163008F83E025E025E0FC90FFD6C3E49CF07448
:104173000F2DFDE43EFE8D828E83E07C0025E0FF63
:10418300EC33FCEF2FFFEC33FCE4C39F74049C90EF
:10419300FFF9F08D828E83E025E025E0FD90FFE1BD
:1041A300C3E49DF02290FF8074CAF090FF817408ED
:1041B300F090FF82F090FF83F090FF84F090FF85F2
:1041C300F090FF86748AF090FF877408F090FF8860
:1041D300F090FF89F090FF8AF090FF8BF090FF8CB6
:1041E300748AF090FF917408F075DA8AF5DBF5DCD8
:1041F3002290FF807402F090FF81E4F090FF82F040
:1042030090FF83F090FF84F090FF85F090FF867419
:1042130002F090FF87E4F090FF88F090FF89F09020
:10422300FF8AF090FF8BF090FF8C7402F090FF9167
:0A423300E4F075DA02F5DBF5DC2299
:104F3300C3A587785A4B3C3C4B5A7887A5C3E1FFFE
:104F4300C3A587694B2D1E1E2D4B6987A5C3E1FFA2
:104F5300C3A587694B2D0F0F2D4B6987A5C3E1FFB0
:104F6300C3A587694B2D1E1E2D4B6987A5C3E1FF82
:104F7300C3A587785A4B3C3C4B5A7887A5C3E1FFBE
:104F830000102030405060708090A0B0C0D0E0F09E
:054F930000336699CC1B
:10423D00AF82BFA502800ABFA6028009BFA70E806C
:10424D0008900001229000022290000422900000AC
:10425D0022AF82BFA8005003024323EF243D500339
:10426D00024323EF2458FF240A83F582EF241F8392
:10427D00F583E473B7BBBFC3C7D3DBDFD7E3E7EB8E
:10428D00F7FBFF03070B17CBCF0F13EFF31B1F42EA
:10429D0042424242424242424242424242424343EF
:1042AD00434342424343424243439000E222900043
:1042BD00E9229000EA229000B5229000B6229000EB
:1042CD00B3229000B4229000B7229000CC2290002F
:1042DD00CD229001832290018A2290019222900199
:1042ED00942290019F229001CB22900221229002D4
:1042FD00232290022422900225229002262290024F
:10430D00272290006F229000702290022A229002A4
:10431D009F229002A02290000022AE82AF83BE4E5B
:10432D005FBF7E5CE51F602B120E92E5825422600A
:10433D001175123590002575F000120DD7120A690E
:10434D00803A75122990002575F000120DD7120ACA
:10435D00698029120E92E5825422601175133590F1
:10436D00002575F000120E0F120A69800F751329C2
:10437D0090002575F000120E0F120A697582002249
:04438D007582012212
:104F98004E7E1E001F002000210022002300240056
:104FA8002500260027002D002E002A000000000002
:104FB8002B0014001A000800150017001C00180028
:104FC8000C00120013002F00300031000000000018
:104FD800390004001600070009000A000B000D0044
:104FE8000E000F003300340000002800000000000D
:104FF800E1001D001B00060019000500110010004B
:1050080036003700380000000000E50052004C0070
:10501800E000E200E300000000002C0000000000B7
:10502800E3004D7E50000000000051004F000000DA
:105038004E7E1E001F0020002100220023002400B5
:105048002500260027002D002E002A000000000061
:105058002B0014001A000800150017001C00180087
:105068000C00120013002F00300031000000000077
:10507800390004001600070009000A000B000D00A3
:105088000E000F003300340000002800000000006C
:10509800E1001D001B0006001900050011001000AA
:1050A80036003700380000000000E50052004C00D0
:1050B800E000E200E300000000002C000000000017
:1050C800E300235250000000000051004F00000090
:1050D8003500BE00BD00C100C00003780478BC00E4
:1050E800AE00BB00A800AA00A9004C000000000008
:1050F8004B7E417E427E437E407E010001000100DE
:105108000100010001000100010001000000000091
:10511800010001000100010001000100010001007F
:105128000100010001000100000001000000000072
:1051380001000100010001004C7E01000100010096
:10514800497E487E4A7E000000000100467E01003C
:105158000100010001000000000001000000000043
:1051680001000100457E00000000477E447E0000EB
:1051780035003A003B003C003D003E003F00400047
:10518800410042004300440045004C00000000007C
:105198004B7E417E427E437E407E0100010001003D
:1051A80001000100010001000100010000000000F1
:1051B80001000100010001000100010001000100DF
:1051C80001000100010001000000010000000000D2
:1051D80001000100010001004C7E010001000100F6
:1051E800497E487E4A7E000000000100467E01009C
:1051F80001000100010000000000010000000000A3
:1052080001000100457E00000000477E447E00004A
:06010D00E478FFF6D8FDC6
:10439100AD82AE83AFF08D768E778F78857179851A
:1043A100727A85737BA874A9758803890418B8FF8C
:1043B1000119EB4C6025857982857A83857BF01222
:1043C1004C6CFCA385827985837A8D828E838FF0F4
:1043D100EC124405A3AD82AE8380CE8576828577CB
:1043E100838578F022AC82AD83AE72AF73BE0004D8
:1043F100EF600C1F0FE571124405A3DEFADFF88CA4
:04440100828D832203
:1000EB007904E94400601B7A01905223785A75A079
:1000FB0004E493F2A308B8000205A0D9F4DAF27570
:02010B00A0FF53
:1000B400C000A88118C0D0B6001B18B67000401547
:1000C400B697005010C0E0E65407B406005004E6AA
:0A00D40054F8F6D0E0D0D0D000328E
:1044050020F71130F6138883A88220F509F6A883D2
:104415007583002280FEF280F5F022E5828571F039
:10442500A4C582C0F08572F0A4D0F025F0C58385BF
:1044350071F0A42583F5832285827685837785F0BF
:1044450078E5744575700490000022AA71AB72ACD2
:1044550073A874A97518B8FF0119E8496043C0002D
:10446500C001AD76AE77AF788D828E838FF0124C1A
:104475006CFD8A018B068C0789828E838FF0124C26
:104485006CF9EDB501028006D001D0008013D00192
:10449500D0000576E4B5760205770ABA00B70B8039
:1044A500B48A718B728C73AD76AE77AF788D828E50
:1044B500838FF0124C6CFD7F00AB71AC72AE738BC9
:1044C500828C838EF0124C6CFB7E00EDC39BF582D3
:0544D500EF9EF58322BB
:100113007800E84400600A790075A000E4F309D888
:10012300FC785AE84404600C7905900000E4F0A3DD
:04013300D8FCD9FA21
:1044DA00C0708581707E008E831213DAD0702285B7
:1044EA00825585835685F057E4F552F553F5548580
:1044FA0044589044DA0245C0C070E581F57024FB47
:10450A00F558E4F552F553F554E57024FBF8865551
:10451A000886560886579044DA1245C0D07022AFF2
:10452A0082C048C049C04A1245368007C046C047C3
:10453A008F82221581158115810550E4B550020537
:10454A005122AF8274302FFF24C6500B74072FFFFD
:10455A00E54560034307208F82024529E582FFC4AF
:10456A00540FF582C00712454CD007740F5FF582CD
:10457A0002454C858271AB4BAC4CAD4DAE4EAA4F49
:10458A00757320EA2AF572EE2354014572FAEB2B71
:10459A00FBEC33FCED33FDEE33FEC3EA95714008C4
:1045AA00EAC39571FA430301D573D88B4B8C4C8DB2
:1045BA004D8E4E8A4F22858246858347855248858D
:1045CA00534985544AE4F550F551AD55AE56AF57A7
:1045DA008D828E838FF0124C6CFC74012DF555E49C
:1045EA003EF5568F57ECFF7003024C4DBF250280F3
:1045FA0003024C45E4F559F55AF55BF55CF55DF5B2
:10460A005EF55FF560F562F563F5647565FF7566DD
:10461A00FFAC55AD56AE578C828D838EF0124C6C22
:10462A00F56AA3AC82AD838C558D568E577425B529
:10463A006A08856A82124529809074D0256A4003E7
:10464A000246E5E56A24C650030246E574FFB565ED
:10465A004BB56648C004C005C0068563718564729F
:10466A0090000AC006C005C004124420AA82AB8387
:10467A00D004D005D006AE6A7D00EE2AFAED3BFBE7
:10468A00EA24D0F563EB34FFF564E5634564D006AC
:10469A00D005D0047081755A01024621C004C005B4
:1046AA00C00685657185667290000AC006C005C09D
:1046BA0004124420AA82AB83D004D005D006AD6A86
:1046CA007E00ED2AFAEE3BFBEA24D0F565EB34FFD7
:1046DA00F566D006D005D004024621742EB56A15B7
:1046EA0074FFB56505B566028003024621E4F565E7
:1046FA00F566024621749F256A500EE56A248540B4
:10470A0008536ADF75450180037545007420B56A50
:10471A00030247B2742BB56A030247AC742DB56A1B
:10472A000280797442B56A030247B87443B56A03D2
:10473A000247C47444B56A030249567446B56A030B
:10474A0002496D7448B56A030246217449B56A0381
:10475A00024956744AB56A03024621744CB56A0284
:10476A008052744FB56A0302495E7450B56A0302F7
:10477A0048EB7453B56A0280627454B56A03024600
:10478A00217455B56A030249637458B56A0302492C
:10479A0068745AB56A0302462102497275590102C0
:1047AA004621755B01024621755C01024621755E50
:1047BA0001024621755F01024621E55E600AE5585D
:1047CA0014F989588706800BE55824FEFD8D588D0B
:1047DA000187068E8212452902497EE55824FDFE8C
:1047EA008E588E01870409870509870619198C4B8B
:1047FA008D4C8E4D8C828D838EF0124C5485826B3B
:10480A0085836C74FFB56509B56606856B65856C2D
:10481A0066E559703DC3E56B9563E56C9564503266
:10482A00E563C3956BF563E564956CF564AC63ABBE
:10483A00648C028B061CBCFF011BEA4E6010758259
:10484A0020C004C003124529D003D00480E38C633E
:10485A008B64AD65AE66AA4BAB4CAC4D8A828B833A
:10486A008CF0124C6CFC6033C3E49D74808EF06350
:10487A00F08095F050251DBDFF011E8C82C006C038
:10488A0005124529D005D006AA4BAB4CAC4D0ABA45
:10489A0000010B8A4B8B4C8C4D80BBE5597003028F
:1048AA00497EC3E56B9563E56C9564400302497ED6
:1048BA00E563C3956BF563E564956CF564AE63AD2A
:1048CA00648E038D041EBEFF011DEB4C700302496A
:1048DA007A758220C006C005124529D005D0068007
:1048EA00E0E55824FDFC8C588C01870209870309EE
:1048FA00870419198A4B8B4C8C4DAC4DBC800040F7
:10490A00047B438014BC600040047B50800BBC4095
:10491A000040047B4980027B588B82C003124529E0
:10492A0075823A12452975823012452975827812A4
:10493A004529D003BB4902800BBB50028006854C37
:10494A0082124566854B821245668028755D01751F
:10495A00620A8020756208801B75620A8016756279
:10496A00108011756001800C856A821245298004C5
:10497A008E638D64E560605BE55824FCFE8E588E7C
:10498A000187030987040987050987061919198BFD
:10499A004B8C4C8D4D8E4E754B18754C52754D8007
:1049AA00854B6D854C6E854D6F7401256DFAE43526
:1049BA006EFBAE6F8A4B8B4C8E4D856D82856E83F6
:1049CA00856FF0124C6CFD70030245D48D8212453E
:1049DA002980CDE56270030245D4E55E6032E55870
:1049EA0014F9895887067D007C007B008E4B8D4C1C
:1049FA008C4D8B4EE55D7072AB4BAC4CAD4DAE4EF3
:104A0A007C007D007E008B4B8C4C8D4D8E4E805AE7
:104A1A00E55F6021E55824FCFE8E588E0187030964
:104A2A0087040987050987061919198B4B8C4C8D40
:104A3A004D8E4E8035E55824FEFE8E588E01870530
:104A4A0009870619EE3395E0FCFB8D4B8E4C8C4D95
:104A5A008B4EE55D7014AB4BAC4CAD4DAE4E7D004C
:104A6A007E008B4B8C4C8D4D8E4EE55D602DAB4B95
:104A7A00AC4CAD4DE54E30E71FAB4BAC4CAD4DAE3B
:104A8A004EC3E49BFBE49CFCE49DFDE49EFE8B4B41
:104A9A008C4C8D4D8E4E8003755D00756101798158
:104AAA00E4F56DF56E754F00856282C00112457D91
:104ABA00D001E5617013E54FC454F0FCE54FC454CE
:104ACA000F4204E74CF7198002A74F7401256DF5D0
:104ADA006DE4356EF56EE561B40100E433F561AA63
:104AEA004BAB4CAC4DAE4EEA4B4C4E70B889698517
:104AFA006D67856E68E56345647005756301F564E5
:104B0A00E55A702FE559702BAA63AB64AE670E8E17
:104B1A00057E00C3ED9AEE9B5015758220C003C036
:104B2A0002124529D002D0031ABAFF011B80DD8A7E
:104B3A00638B64E55D601175822D124529156374D6
:104B4A00FFB563021564802EE56745686028E55B5A
:104B5A00601175822B124529156374FFB56302151E
:104B6A00648013E55C600F75822012452915637411
:104B7A00FFB563021564E559702FAE63AD648E0309
:104B8A008D041EBEFF011DC3E5679BE5689C503A74
:104B9A00E55A60047C3080027C208C82C006C00505
:104BAA00124529D005D00680D5C3E5679563E56827
:104BBA009564500FE563C39567F563E5649568F5F9
:104BCA0064800BE4F563F56480048E638D64A969DF
:104BDA00AD67AE688D038E041DBDFF011EEB4C60F0
:104BEA002FE561B40100E433F561700909E7C454A3
:104BFA000FF54F80078704740F5CF54F854F82C00D
:104C0A0006C005C00112454CD001D005D00680C4AB
:104C1A00E55970030245D4AD63AE648D038E041D5D
:104C2A00BDFF011EEB4C70030245D4758220C006FD
:104C3A00C005124529D005D00680E08F8212452989
:0A4C4A000245D48550828551832273
:0B5218003C4E4F20464C4F41543E00DE
:104C5400AA82AB83124C6C6003A380F8C3E5829AEA
:084C6400F582E5839BF5832234
:0D00DE00758181124C88E58260030200B13B
:104C6C0020F71430F6148883A88220F507E6A88371
:104C7C0075830022E280F7E49322E0227582002201
:00000001FF
